:020000040000FA
:100000000004040000000000141500004215000068
:10001000701500009E150000CC150000141500009E
:10002000141500001415000014150000141500002C
:1000300014150000381900001415000014150000F4
:1000400014150000C417000014150000141500005A
:10005000141500005A1800002018000014150000A4
:1000600014150000141500001415000014150000EC
:1000700014150000FA1500001415000014150000F6
:1000800014150000141500001415000014150000CC
:10009000E8170000CC140000CA1600001415000078
:1000A00014150000141500001415000014150000AC
:1000B000141500001415000014150000141500009C
:1000C000141500001415000014150000141500008C
:1000D0000818000014150000141500001415000085
:1000E000141500001415000014150000141500006C
:1000F000141500001415000014150000141500005C
:10010000141500001415000014150000141500004B
:10011000141500001415000014150000141500003B
:100120001415000014150000141500007E180000BE
:10013000141500001415000014150000141500001B
:10014000141500001415000014150000141500000B
:1001500014150000141500001415000014150000FB
:100160001415000014150000141500001C190000DF
:10017000D41800009A18000014150000141500008F
:1001800014150000141500001415000014150000CB
:1001900014150000141500001415000014150000BB
:1001A000C8040000C8040000C8040000C80400001F
:1001B000C8040000C8040000C8040000C80400000F
:1001C000C8040000C8040000C8040000C8040000FF
:1001D000C8040000C8040000C8040000C8040000EF
:1001E000C8040000C8040000C8040000C8040000DF
:1001F000C8040000C8040000C8040000C8040000CF
:10020000FFFFFF00FFFFFF00141500004215000074
:10021000701500009E150000CC150000141500009C
:10022000141500001415000014150000141500002A
:1002300014150000381900001415000014150000F2
:1002400014150000C4170000141500001415000058
:10025000141500005A1800002018000014150000A2
:1002600014150000141500001415000014150000EA
:1002700014150000FA1500001415000014150000F4
:1002800014150000141500001415000014150000CA
:10029000E8170000CC140000CA1600001415000076
:1002A00014150000141500001415000014150000AA
:1002B000141500001415000014150000141500009A
:1002C000141500001415000014150000141500008A
:1002D0000818000014150000141500001415000083
:1002E000141500001415000014150000141500006A
:1002F000141500001415000014150000141500005A
:100300001415000014150000141500001415000049
:100310001415000014150000141500001415000039
:100320001415000014150000141500007E180000BC
:100330001415000014150000141500001415000019
:100340001415000014150000141500001415000009
:1003500014150000141500001415000014150000F9
:100360001415000014150000141500001C190000DD
:10037000D41800009A18000014150000141500008D
:1003800014150000141500001415000014150000C9
:1003900014150000141500001415000014150000B9
:1003A000C8040000C8040000C8040000C80400001D
:1003B000C8040000C8040000C8040000C80400000D
:10080000CF8020000E7F24000E0188000000000031
:10081000000020000000E000020032000001200083
:100820002002880014000700760007000000E000A6
:1008300003003A00E0F4200001002000020037002D
:100840000000200001002000810F70000100320034
:1008500014000700000020000000E0000200320049
:100860000000020000000000280E0200000000004E
:100870000040DA000000FE004440A900800820008B
:100880000000E0000300320000002000A00188000A
:100890004440A800000006008A1F78008B1F7800E3
:1008A0000000060091018800800478000000EB0041
:1008B0001A003700E284440032A0B4009905BA005F
:1008C000E284440032A0B4009906BA00E2844400F5
:1008D00032A0B4000006EB00476FDE00FD07B20057
:1008E000636CE10003003A00EBFF07000000EB003F
:1008F0000A003700606CE10004003A00005DEB0084
:100900008B05E900FDFF3E00040037006168E1004F
:10091000010032000086EB000B00070019C7BA0087
:100920001905BA000E04E00003003A000A00E000D6
:10093000E0FF3A0000000600FE07B2009E018800BA
:100940008A047800F5FF3700395DBA008B05E900AD
:100950000C003200295DBA008B05E9000800320066
:100960000C00E00003003A00E284440032A0B4002E
:10097000F5FF370019DDBA008B05E900FAFF3A00F0
:100980008904E800E184440032A0B40000000600BD
:100990000040DA000000FE00001020002202B60035
:1009A0000000E9004F00DE000000060021E2A9007F
:1009B0009560A9009580A9008560A9008580A9009F
:1009C0000000060042118800001188001111880003
:1009D00001003700301180002202AB00FDFF3A0019
:1009E0008560A9000000060001118000E68060001B
:1009F000E68F500001003200F00FB2002011880095
:100A00000000060000000500800278000103780065
:100A100086017800110009008281D80080017800E9
:100A20008502E8000300E000FAFF3A00834A7800FC
:100A30008502E900110009000283D8000002780055
:100A40008141780004037800E9CF510001003400AF
:100A5000E7C1410001C3B30081CA41000400E000C6
:100A6000F3FF3A000500780000000600881F7800B8
:100A7000000478000100E00005003D000800780057
:100A8000D3C2B300035878008100EA0001003700A8
:100A900008007800DCFF0700080078004F047800A9
:100AA00000000600889FBE008A9FBE008C9FBE008B
:100AB000800578000204BE00010578000200BE0037
:100AC00001003700820578006156B9000C01BE00B4
:100AD0002A0007000B01E800E00F5000E08F5800EB
:100AE000F8FF3A000049EB000C01BE000800BE0010
:100AF00032000700004578000C01BE000800BE006F
:100B00001E0007000004BE00E94F5500010034003C
:100B10006745450000C3B30080554500E00F540011
:100B2000E08F5C00F0FF3A000B0078004F06BE003B
:100B30004F05BE004F04BE0000000600881F78006D
:100B400000047800E00F5100E08F590006003D00DE
:100B500008007800D4C2B300045878006001110086
:100B6000E08119000100370008007800CDFF070080
:100B7000080078004F047800000006006022B800EA
:100B8000060220000000D0008180D2000482D20042
:100B90008582D2000000A0000202520083825A0027
:100BA000030031000202420083824A000000A100DB
:100BB0000603E900F3FF3A0000000600EFFF07001C
:100BC0000400BE00000006005374000061720000C3
:100BD000746900006E6700002075000070640000FA
:100BE00061740000652E00002E2E00000D0A00002A
:100BF00000460000697200006D770000617200001D
:100C000065200000757000006461000074650000DC
:100C100020730000756300006365000073730000BB
:100C20000D0A000000460000697200006D770000A8
:100C300061720000652000007570000064610000B2
:100C40007465000020660000616900006C650000AA
:100C5000640D00000A000000696400003D0000000F
:100C60002C200000626C00006F6300006B7B0000B2
:100C70002E6200006C6F0000636B00004E75000078
:100C80006D3D0000002C0000202E00006368000075
:100C9000656300006B530000756D00004461000047
:100CA000746100003D0000002C2000002E63000055
:100CB00068650000636B0000537500006D4800001C
:100CC0006561000064650000723D0000007D000069
:100CD0000D0A000000000000C5C2A9000080FB0052
:100CE000401388006022AB00FEFF3A006002AB00B8
:100CF000FCFF320040138000C5C2A80000000600BF
:100D00000200FA00C5C2A90050002000401388006C
:100D10006022AB00FEFF3A006002AB00FCFF320035
:100D200040138000E0FF9F008000EB00411388002B
:100D30006022AB00FEFF3A006002AB00FCFF320015
:100D400040138000E0FF9F006FF997000280FB00D6
:100D50000008A300F5FF3A00C5C2A8000080FA0011
:100D6000000006000200FA00889FBE00C5C2A8006D
:100D7000C1C2A900C9C2A900C1E2A800C922A90034
:100D80001813800009138000CF4CDE0061E2A90037
:100D9000B01320001013880061E2A8006422EF0065
:100DA0006022EF0061E2A800C5C2A900000920008E
:100DB000401388006022AB00FEFF3A006002AB00E7
:100DC000FCFF320040138000A0FF9F000040EB00BA
:100DD0000001EB00421388006022AB00FEFF3A00E6
:100DE0006002AB00FCFF320041138000A1FF9F00B6
:100DF0000040E800E54F5000F6FF3A00C5C2A800E9
:100E00000A68EF002FF8970091C4B300814F50009B
:100E100007003E008140E900814F5000080031008A
:100E2000E5C05000814F500009003A00040037002F
:100E3000B1C4B300814F500005003A0002003700F2
:100E40000A28A800030037000A48A800010037005C
:100E50000A08A80040C0B3009FFF070000C5B30008
:100E60009DFF0700C5C2A9001000200040138800A4
:100E70006022AB00FEFF3A006002AB00FCFF3200D4
:100E800040138000A0FF9F006822EF006022AB00AB
:100E9000FEFF3A006002AB00FCFF3200401380000E
:100EA000A0FF9F00C5C2A80061E2A9001813880036
:100EB0000980FB004F00DD000113800001F0A1005C
:100EC00081007000011388004F04BE000080FA000A
:100ED000000006000600FA00E0BF9F00F1BF9F007F
:100EE0000200E000430032000300E0004100320055
:100EF00015138000041380004F22DE0061E2A90078
:100F0000B01320001013880061E2A800C5C2A90038
:100F100030002000401388006022AB00FEFF3A0042
:100F20006002AB00FCFF320040138000A0FF9F0076
:100F30006FF897000080FB00401388006022AB0030
:100F4000FEFF3A006002AB00FCFF3200401380005D
:100F5000A0FF9F005FF897000080FB00401388000F
:100F60006022AB00FEFF3A006002AB00FCFF3200E3
:100F700040138000A0FF9F00CFF897000180FB0086
:100F8000401388006022AB00FEFF3A006002AB0015
:100F9000FCFF320040138000A0FF9F000300E90027
:100FA0008001EB00431388006022AB00FEFF3A0093
:100FB0006002AB00FCFF3200411380000159780051
:100FC0000000E000020032000000E900F5FF3700F9
:100FD000C5C2A80061E2A900151388000480FB00C7
:100FE0004F00DD000113800001F0A10081007000BE
:100FF000011388000080FA000000060030408800DD
:1010000041408800000006000600FA00889FBE00EC
:10101000C0BF9F00D1BF9F0018138000091380003C
:10102000CF4CDE0061E2A900B0132000101388004D
:1010300061E2A80060C0B30027FF0700C5C2A90095
:1010400000022000401388006022AB00FEFF3A003F
:101050006002AB00FCFF320040138000E0F79F000D
:101060002FF897000080FB00401388006022AB003F
:10107000FEFF3A006002AB00FCFF3200401380002C
:10108000E0F79F001FF897000080FB0040138800E6
:101090006022AB00FEFF3A006002AB00FCFF3200B2
:1010A00040138000E0F79F008FF897000180FB005D
:1010B000401388006022AB00FEFF3A006002AB00E4
:1010C000FCFF320040138000E0F79F00C5C2A8007B
:1010D0000BFF070061E2A900181388000980FB00DC
:1010E0004F00DD000113800001F0A10081007000BD
:1010F000011388004F04BE000080FA0000000600C3
:101100000200FA00889FBE008A1F78000044780021
:10111000191380000A1380004F55DE0061E2A90018
:10112000B01320001013880061E2A8003040800056
:1011300041408000F2FF20000001610001003A0000
:10114000B1FF070060C0B300E3FE0700C5C2A900FD
:1011500020002000401388006022AB00FEFF3A0010
:101160006002AB00FCFF32004013800080FF9F0054
:1011700060802000A04090008180FB004113880027
:101180006022AB00FEFF3A006002AB00FCFF3200C1
:101190004113800081FF9F00904090008180FB0000
:1011A000411388006022AB00FEFF3A006002AB00F2
:1011B000FCFF32004113800081FF9F001080FB0084
:1011C000401388006022AB00FEFF3A006002AB00D3
:1011D000FCFF32004013800080FF9F000884FB006A
:1011E000481388006022AB00FEFF3A006002AB00AB
:1011F000FCFF32004013800080FF9F0030408000E1
:101200004140800061004000E0804800304088009C
:1012100041408800C5C2A800B9FE070061E2A900EC
:10122000191388000A80FB004F00DD0001138000C5
:1012300001F0A10081007000011388004F057800C3
:101240004F04BE000080FA0000000600E887470057
:10125000889FBE008A9FBE008C9FBE008E1F7800B4
:1012600000057800810478000900E0009100320058
:101270001013800080BF9F00001380004F00DE002D
:10128000E0EF9F0061E2A900B01320001013880076
:1012900061E2A8000608AB00030032003A40780083
:1012A00097FF07008904E900E18F540070003600C1
:1012B000DCCAB3008005EB00FDFF2000FECAB300CE
:1012C00001003700880478008DFE07003040800060
:1012D000414080000081660001003A004AFF07009B
:1012E0000B00E00035003A0060C0B3007AFE070052
:1012F0000AC8BF000018A30009003A000028A30094
:1013000008003200030037003A4078007CFF0700F5
:101310008904E9000900E000FBFF3A00650037009E
:101320000E467800C5C2A9000C80FB00401388005F
:101330006022AB00FEFF3A006002AB00FCFF32000F
:1013400040138000C0EF9F0060802000A04090000C
:101350008180FB00411388006022AB00FEFF3A0051
:101360006002AB00FCFF320041138000C1EF9F0020
:10137000904090008180FB00411388006022AB0008
:10138000FEFF3A006002AB00FCFF32004113800018
:10139000C1EF9F001080FB00401388006022AB006B
:1013A000FEFF3A006002AB00FCFF320040138000F9
:1013B000C0EF9F001B00200009003700C5C2A90034
:1013C0000C80FB00401388006022AB00FEFF3A0057
:1013D0006002AB00FCFF320040138000C0EF9F00B2
:1013E000A280200012417800610161000A007800AB
:1013F00009047800B080FB004113880000057800E4
:10140000344080004540800061024200E0824A0092
:1014100034408800454088000804E9006022AB00A1
:10142000FEFF3A006002AB00FCFF32004113800077
:10143000C1EF9F0088C054008180FB00828F500064
:10144000ECFF3400C5C2A80035408000058066006E
:1014500004003A002AFE070040C0B3001EFE070049
:101460008005EB00E10F540096FF3E0088047800F1
:1014700023FE070040C0B30017FE07000900E0008C
:10148000020032001A4078001DFF070061E2A90047
:101490000FB8970010138800EFE897000180FB0059
:1014A0004F00DD000113800001F0A10081007000F9
:1014B000011388004F0778004F06BE004F05BE009D
:1014C0004F04BE008F00B10000000600889FBE00E0
:1014D0008004780001047800C0622800250207001B
:1014E000090078003002070000632800210207008D
:1014F000180078002C020700306428001D02070045
:10150000384092000080FB00270207004065280059
:1015100018020700284090000080FB00220207000C
:1015200070662800130207004F04BE00000006008A
:101530000048E20003003A0010C0B30000E8B70022
:1015400008FE070000000600000023000100200044
:10155000ADFE070010002000000006004300200040
:1015600000017800000023000100200059FE070060
:1015700010002000000006000400FA00881F780018
:101580000004780000C0EB00204498000000230015
:101590000100200099FE07004100200008007800AB
:1015A0002AFF070066805700ECFF0700A840900064
:1015B0000000EB004FF99700814F510006003A0000
:1015C000DFB897001880680000F0A7000000EA006C
:1015D0000000E9004F00DE004F0478000080FA00B0
:1015E00000000600200023000100200083FE070009
:1015F000A0CAB300C2FE07001000200000000600D1
:101600000400FA0064805700D4FF0700A0CAB300AA
:10161000EFF8970000C068000080FB000000E900C0
:101620004F00DE000080FA0000000600881F7800EE
:1016300000047800010178008800E900B07C2000F7
:10164000808F50000A003E008800E9004010200012
:101650000088B9004400230005002000000042007B
:1016600081804A00431020001AFE07000100370065
:101670000004EB00080078004F047800000006002A
:101680006F10B000889FBE008A1F78008E1F780000
:1016900080047800010578008900E900D07C2000F2
:1016A000808F50001C003E008900E900401020009F
:1016B0000088B90042002300030020000000410020
:1016C000818049004DFE0700411020000A0078008B
:1016D000DEFE070041EF2F008F80400009007800F8
:1016E000D2FF07004FF095009A4F50000C003A00CF
:1016F0000A04E8004EEF2F000F0747004A10B00021
:101700005E407800B84F500007003A008A0F54003E
:10171000FBFF3A00050037008004EB0003003700B0
:101720008004EB00010037008004EB000900780022
:101730004F0778004F0578004F04BE006F10B100CE
:1017400000000600EE874700889FBE008A9FBE000B
:101750008C9FBE008E1F78000204BE00000578003A
:101760001B00200002003700640545008B05E800DF
:101770001A80FB0002F02F008C00610081007000D5
:101780009A419000C819DD00F00F200080806000B1
:1017900001867100AA4090008180FB000D0161006C
:1017A000828070003A4190004811DD0000806000A6
:1017B00080067100F8B79F0089BF9F00E00F5400BA
:1017C000E08F5C0008003A001C4080002D40800043
:1017D0008C0178000D0178008800780009007800FD
:1017E00091010700100037008C0178000D0178008E
:1017F00088007800090078008B010700FFB097008F
:101800007F806000F80F500007003A007FB097001B
:101810008FB89700D0B79F00E1B79F000C00BE00C3
:10182000B0B79F00C1B79F00E18F55001100320093
:101830000B0778000B007800F003B20007003A00B5
:10184000BFB197004FB19700DFB097006FB097001E
:1018500075010700100024006801070062044400BD
:10186000E0844C00F0032000800F5700BEFF3400DE
:101870000300370062044400E0844C00BAFF3700E4
:101880004F0778004F06BE004F05BE004F04BE0054
:10189000EF00B10000000600CE01FA00889FBE00F4
:1018A0008A9FBE008C9FBE000F007800A01DB10073
:1018B0000A0009000018EB008F007800411CB100FD
:1018C000550009008018EB0019FF07004CFF0700C6
:1018D000800078000000EB000100E0009100320081
:1018E000748057001DFF07006FB097000000E000F4
:1018F00022003400180020008804780081EE2F00B8
:101900008F8040000800780048FF07004FB0960025
:101910004601DE00C300DE00E78160008349DD0090
:1019200065E22F008F824200654279008341720098
:101930008343780087727900670060000048DD000B
:1019400001814200625190008041610008003A002C
:101950008180420000407100E05098000804E800D7
:101960006FB09700880F5000E4FF3D000300370080
:10197000F502A9000000EB006A00370002C02F004A
:10198000F3FF2F006000B800160020000A8020003E
:101990000B002000B80A2000090020006702600048
:1019A0000432DD00C30EDE00CD0ADD004306DE009A
:1019B0000C8672008CBF9F009DBF9F0067E22F00C6
:1019C0008F8343008C82430015426200080032007E
:1019D000FCFF20000D0020008C0F51008D8F59005E
:1019E00003003E00F502A9000000EB004D003700A7
:1019F00061004000E08048000201450083814D0005
:101A0000880F5000898F5800E4FF3A000000EB0077
:101A10009000BA00114088001080BA002040880071
:101A20000AC02F00FBFF2F006044B8000C402000CC
:101A30000D00200067006400110020000008DD0098
:101A4000CD48DD004341DE0002817000C349DE0065
:101A500064E22F000F024200820042001140600049
:101A60000D0032004A4ADD00C642DE0085027200E7
:101A70004A42DD00F0FF200001002000800F5500E9
:101A8000818F5D0004003600220424008400780069
:101A900005007800F200070061044400E0844C0077
:101AA0000A0546008B854E00B10A2000810F5400C4
:101AB000E08F5C00DFFF3A00EFB097008100E800A4
:101AC00010002000808F50001600340000047800C1
:101AD00083EE2F008F814100E384410081EE2F00CF
:101AE0008F80400008007800D0FE07004FB09600BD
:101AF000CF80DE004709DD00C901DE0083017100EF
:101B00004701DD00090078000EFF07000804E80027
:101B10006FB097000000E800880F5000EFFF3C0016
:101B2000100020004F06BE004F05BE004F04BE004F
:101B30000080FA0000000600F102A900F0E2A9000E
:101B4000C5C2A800C1C2A900F00B20004207B60020
:101B50006204200073052000217420008248780070
:101B60008348780080487800F00F2C00D43680003D
:101B70008400600001B0A000D1368800A536800046
:101B8000050260000170200084807000A13688008A
:101B900001FC2F0045358000058260008402B300FF
:101BA0004435880004348000840260000460220010
:101BB000050272000434880044368000840260000C
:101BC00004A02000050272004436880075368000AB
:101BD00005826000B400B30074368800653580006B
:101BE000058260003402B30064358800D43680007A
:101BF000848060002101B300D136880095368000D2
:101C00000502600001302100848070009136880058
:101C1000F1368000010260000160210084807000C4
:101C2000F1368800C406B6000140210080807000B3
:101C300021368800103A80000060A0002174200046
:101C400082487800834878008048780000000600C9
:101C5000B9FF070036FE070016000700F4E2A800EF
:101C6000F502A80066FE07000000E0000F00320049
:101C7000405E28003F00070007FF07000000E0006B
:101C800005003200F4E2A900F502A800905F2800E8
:101C90003800070004003700F4E2A800F502A900AC
:101CA000306128003300070027FE070069000700A5
:101CB000FFFF37002CE3A8002D03A800C8E2A8000E
:101CC000C902A900F20B2000103A80000001610057
:101CD00060042000710520002374200080497800F2
:101CE000814978008249780002FC2F004436800048
:101CF000840161003300B30043368800233580003F
:101D0000030161007200B30022358800123A80009E
:101D10000260A00023742000804978008149780087
:101D20008249780021FB0700F200200001402000DA
:101D30000080280023FB07008580A9008560A9009A
:101D4000F0F82F00C400B6000040A0002006880074
:101D5000F0FF2800A800B60000C0A00040058800E1
:101D600080FF2F00AA00B6000000A00050058800E8
:101D700000000600881F7800000478001804E000C6
:101D80000700320004FB07000004E000FDFF3A00FA
:101D90001800FB0014FB07005804E000F9FF3A00AC
:101DA0004F047800000006000400FA00A2002000A2
:101DB00080007800648057002CFB07006480570087
:101DC000ECFF07000080FA00000006000600FA00A1
:101DD0000001BE00A10020006680570057FB0700ED
:101DE00066805700E3FF07000080FA00000006004D
:101DF000900188008100780000000600003B880008
:101E000050052000303B8800A00A2000303B8800AD
:101E100061E7A800000000000000000061E7AF00DB
:101E2000FEFF370000000600900188008308BB0019
:101E30008288BB0000000600900188001100BA00F3
:101E40009180BA0000000600020C040000000000AF
:101E5000000006000014040000000000000006005E
:101E60003200F800023B8800900188008108BB0026
:101E700050052000303B8800A00A2000303B88003D
:101E800061E7A800000000000000000061E7AF006B
:101E9000FEFF37003200F9000000060000080000D5
:101EA0000600000000000000060800000600000018
:101EB0000000000000000000FFFFFF00FFFFFF0028
:101EC000FFFFFF00FFFFFF00FFFFFF00FFFFFF001E
:101ED000FFFFFF00FFFFFF00FFFFFF00FFFFFF000E
:101EE000FFFFFF00FFFFFF00FFFFFF00FFFFFF00FE
:101EF000FFFFFF00FFFFFF00FFFFFF00FFFFFF00EE
:1028000004140400000000002F4122000E7F240069
:102810000E01880000000000000020000000E00021
:10282000020032000001200020028800140007008E
:10283000C40307000000E00003003A00E02E2F0070
:1028400001002000020037000000200001002000ED
:10285000810F70000100320014000700000020000A
:102860000000E00002003200000002000000000052
:1028700068FA0200000000000040DA000000FE00DC
:102880004440A900002324000000E00003003200BF
:1028900040002000A00188004440A800000006007D
:1028A0008A1F78008B1F78000000060091018800C5
:1028B000800478000000EB001A003700E284440036
:1028C00032A0B4009905BA00E284440032A0B400FA
:1028D0009906BA00E284440032A0B4000006EB007E
:1028E000476FDE00FD07B200636CE10003003A00B1
:1028F000EBFF07000000EB000A003700606CE1000E
:1029000004003A00005DEB008B05E900FDFF3E008E
:10291000040037006168E100010032000086EB002E
:102920000B00070019C7BA001905BA000E04E00031
:1029300003003A000A00E000E0FF3A000000060051
:10294000FE07B2009E0188008A047800F5FF370078
:10295000395DBA008B05E9000C003200295DBA0030
:102960008B05E900080032000C00E00003003A008B
:10297000E284440032A0B400F5FF370019DDBA004C
:102980008B05E900FAFF3A008904E800E18444007D
:1029900032A0B400000006003600F800809FBE00A0
:1029A000829FBE00849FBE00869FBE003400F80058
:1029B00040002000A00188008760A900C0FF8000BF
:1029C000D1FF800072022000820F5000E08F58007B
:1029D0000A003400C2FF21001204E00007003A00A0
:1029E00002408000134080001000200066000200BA
:1029F000010000000000FE000400370061004000FC
:102A0000E0804800C0FF8800D1FF88003400F90052
:102A10004F03BE004F02BE004F01BE004F00BE007C
:102A20003600F900004006003600F800809FBE0026
:102A3000829FBE00849FBE00869FBE003400F800C7
:102A400040002000A0018800780102000100000081
:102A50000240800013408000200020006600020039
:102A6000010000000000FE003400F9004F03BE002A
:102A70004F02BE004F01BE004F00BE003600F900FD
:102A8000004006003600F800809FBE00829FBE0016
:102A9000849FBE00869FBE003400F80040002000E6
:102AA000A0018800780102000100000002408000BF
:102AB000134080003000200066000200010000008A
:102AC0000000FE003400F9004F03BE004F02BE00BC
:102AD0004F01BE004F00BE003600F9000040060066
:102AE0003600F800809FBE00829FBE00849FBE001B
:102AF000869FBE003400F80040002000A00188003E
:102B000078010200010000000240800013408000B4
:102B10004000200066000200010000000000FE00EE
:102B20003400F9004F03BE004F02BE004F01BE004B
:102B30004F00BE003600F900004006003600F800E5
:102B4000809FBE00829FBE00849FBE00869FBE0005
:102B50003400F80040002000A00188007801020045
:102B6000010000000240800013408000500020005F
:102B700066000200010000000000FE003400F900C1
:102B80004F03BE004F02BE004F01BE004F00BE000B
:102B90003600F900004006003600F800809FBE00B5
:102BA000829FBE00849FBE00869FBE003400F80056
:102BB00040002000A0018800780102000100000010
:102BC0000240800013408000600020006600020088
:102BD000010000000000FE003400F9004F03BE00B9
:102BE0004F02BE004F01BE004F00BE003600F9008C
:102BF00000400600809FBE00829FBE00849FBE00F2
:102C00003400F80040002000A0018800C0088000C7
:102C10008660A90011178000C808DE00E1C06000CE
:102C200052802100014978004280210092CF50005B
:102C3000530032000149780000000000000000004D
:102C40000000000061BF8000E38F500003003200ED
:102C5000E48F500047003A001A00370051802100ED
:102C60001104E0000B003A001821EF0000002800DA
:102C70000009880000E22400E008880080FF2F009F
:102C8000B200B6006000B300900588009780A800ED
:102C90003B00370071D42000810F500003003E003C
:102CA0002021EF001821EF00350037001821B50072
:102CB0004000200060BF88000000EB00F0BE8800EC
:102CC0002F00370001CF2300810F50000400360091
:102CD0002021EF005000200060BF8800280037004E
:102CE00001F42100810F500025003600F1BE800064
:102CF0000101E800F2BE8800FF8F500011003E0085
:102D000051802100114178000204A2000281FB00E1
:102D10000201E9004F11DE006112B90002C080001B
:102D200013C080000201410083814900020172004A
:102D30008381720002C0880013C088001821B5008A
:102D40000F0037002021EF005080210011C0B30098
:102D500090CF100003003A001000200060BF8800F0
:102D600007003700F5E2A8005000200060BF88008F
:102D70000300370000000000000000000000000019
:102D80003400F9004F02BE004F01BE004F00BE00EC
:102D9000004006003600F800809FBE00829FBE0003
:102DA000849FBE00869FBE003400F80040002000D3
:102DB000A00188008780A90000000000000000003A
:102DC0000000000070BF8000E20F50004F003A008A
:102DD000E07C21001004E00008003A0011C0B300BC
:102DE00001487800608021009080FB008100E900AC
:102DF000CF08DE00014878003B003700E07C21006E
:102E00000048EB000000000000000000000000008F
:102E1000F07C21001004E0000A003A0011C0B30069
:102E2000014878000040EB00017D210080487800D7
:102E3000F101200061BE8800618021008048780097
:102E40002C00370060BE80000000E0001600350056
:102E500092BF8000A3BF800061BE80000202BE005E
:102E6000010378000603E900030033008502D10066
:102E70000482D300FBFF37000408A30003003200E4
:102E8000608021000048EB000300370011C0B30050
:102E9000608021000148780060BE80000000E900E9
:102EA00060BE880010003700007D21001004E000A3
:102EB00005003A0011C0B30001487800608021008D
:102EC0000048EB000B0037002021EF0011C0B300D9
:102ED0006080210001487800D677020000000000E1
:102EE0003000200070BF8800608021001004E000E6
:102EF00003003A00A6B50200000000001B003700E6
:102F0000AAB50200000000001800370060BF800072
:102F1000E20F50000F003A002021EF001CA1EF004B
:102F20003000200060BF880011178000C808DE0054
:102F30004080210061C86000000000000000000027
:102F4000000000008660A9006840A8009660A80004
:102F50000600370063005000E10F500003003E0000
:102F60005000200060BF88002021EF003400F900ED
:102F70004F03BE004F02BE004F01BE004F00BE0017
:102F80003600F900004006003600F800809FBE00C1
:102F9000829FBE00849FBE00869FBE003400F80062
:102FA00040002000A001880084E0A900A8B602002B
:102FB000000000003400F9004F03BE004F02BE00C5
:102FC0004F01BE004F00BE003600F9000040060071
:102FD000801F78003400F80040002000A001880025
:102FE0008740A90000F82F00E422B600DC22B600DA
:102FF000F00F2800DC22B60080F82F00EC22B6008B
:10300000CD82A9003400F9004F007800004006008E
:103010003400F800881F780048002000A8018800CC
:103020004F0478008940A9009940A9003C03A900F9
:103030002023A90011E1A8003400F9000040060097
:103040003600F800809FBE00829FBE00849FBE00B5
:10305000869FBE00C41A0200000000000004E000C9
:103060000E003A008580A90000332100C0FD020057
:10307000000000000004E00007003A0000332100D7
:1030800006FD0200000000000000FB00781B0200AB
:1030900000000000010037009580A9004F03BE002A
:1030A0004F02BE004F01BE004F00BE003600F900C7
:1030B000004006003600F800809FBE00829FBE00E0
:1030C000849FBE00869FBE008560A900421B02004F
:1030D000000000008040780060322100EAFC02001D
:1030E000000000004F03BE004F02BE004F01BE00B3
:1030F0004F00BE003600F900004006003600F80020
:10310000809FBE00829FBE00849FBE00869FBE003F
:103110008C20A900ACF60200000000004F03BE00A6
:103120004F02BE004F01BE004F00BE003600F90046
:10313000004006003600F800809FBE00829FBE005F
:10314000849FBE00869FBE00D81A020000000000C7
:103150000004E0000E003A008E60A900C03121009A
:10316000C0FD0200000000000004E00007003A007B
:10317000C031210006FD0200000000000000FB003D
:10318000941B020000000000010037009E60A900AF
:103190004F03BE004F02BE004F01BE004F00BE00F5
:1031A0003600F900004006003600F800809FBE009F
:1031B000829FBE00849FBE00869FBE00889FBE0087
:1031C0008A9FBE008E40A90089312100990CE80039
:1031D0000984E90018057800640054009005450052
:1031E000661B020000000000804D78000A0CE80019
:1031F00018007800D2988000110009000280D800E1
:10320000010C780019015100F0032000800F5100DB
:1032100001003E00F322A9004F05BE004F04BE008E
:103220004F03BE004F02BE004F01BE004F00BE0064
:103230003600F900004006003600F800809FBE000E
:10324000829FBE00849FBE00869FBE008E20A90084
:1032500058F70200000000004F03BE004F02BE00FE
:103260004F01BE004F00BE003600F90000400600CE
:10327000801F7800849FBE00869FBE00889FBE008E
:103280008A9FBE00E0FC21003004BE002005BE0085
:1032900014002000050020006033B800041844002A
:1032A00005984C0006184D0007884D008460A90061
:1032B0004F05BE004F04BE004F03BE004F02BE00CC
:1032C0004F007800004006001004B10007003500F0
:1032D0009001B100040034007000B100030035001B
:1032E0009001B10001003C00100005000000050045
:1032F0006900E100040035006D00E10003003400C6
:103300000002B100010032000000050010000500BD
:103310001004B100030035009001B10001003C0031
:103320001000050000000500800078001104B100C5
:10333000030035009101B10001003C000050A000E5
:1033400000000600800078001106B100030035007F
:103350009101B10001003C000050A10000000600F6
:103360000A00FA000000E0003B003A00E3FA8000A7
:10337000A34190000304E00037003A0043018100BC
:10338000E18F510003003200E28F51000E003A003D
:1033900009003700002220000000E00001003A0090
:1033A0000040DA002002E2000B0035002822EF0086
:1033B00021E2A80008003700002320000000E00000
:1033C00001003A000040DA003002E200020035005D
:1033D0003822EF0031E2A800020078001A0037001E
:1033E000040A2000E18F51000B003A00030037006F
:1033F0000402E90002003A0003003700040A20003A
:103400002202AB00FAFF32001411800005003700E1
:103410000402E900020032003202AB00FCFF32007D
:10342000941180006102620009003200E18F5100B6
:1034300002003A003411800001003700B41180000E
:10344000845878000000E9000000E000E4FF3A0042
:10345000000051000800370023002000B3BF9F0088
:10346000C0BF9F00D1BF9F00E2BF9F006A8057008E
:10347000DE1A07006FB897000080FA00000006000F
:103480000A00FA00E20F500034003E0040018100C3
:10349000E10F500003003200E20F500011003A002B
:1034A0000C003700032220000300E00001003A0076
:1034B0000040DA002002E200020035002822EF007E
:1034C00021E2A8002342AB000D003A002342A800ED
:1034D0000B003700032320000300E00001003A0046
:1034E0000040DA003002E200020035003822EF002E
:1034F00031E2A8003342AB0001003A003342A80099
:10350000820178000B0037003102FB00E10F500010
:1035100004003A002322AB00FEFF3A002411880089
:10352000030037003322AB00FEFF3A00A4118800ED
:103530008301E9000300E000F3FF3A00E10F5000CF
:1035400003003A002302AB00FEFF32000B003700FD
:103550003302AB00FEFF32000800370033002000CA
:10356000B3BF9F00C0BF9F00D1BF9F00E2BF9F00BD
:103570006A8057009F1A07006FB997000200780011
:103580000080FA0000000600001020002202B600B1
:103590000000E9004F00DE000000060000102000DF
:1035A0003202B6000000E9004F00DE000000060015
:1035B000001020005202B6000000E9004F00DE00BB
:1035C0000000060021E2A9009560A9009580A900ED
:1035D0008560A9008580A9000000060031E2A900ED
:1035E00097C0A90097E0A90087C0A90087E0A900BB
:1035F0000000060051E2A9009E40A9009E60A900BB
:103600008E40A9008E60A900000006009011800085
:10361000614060000000060042118800001188002F
:103620001111880001003700301180002202AB0028
:10363000FDFF3A008560A90000000600C211880065
:10364000801188009111880001003700B0118000BE
:103650003202AB00FDFF3A0087C0A900000006005F
:10366000C212880080128800911288000100370081
:10367000B01280005202AB00FDFF3A008E40A9005C
:10368000000006000011800066006000E60F500098
:1036900002003A0030118000000006003011800066
:1036A000F00FB2000000060080118000660060008C
:1036B000E60F500002003A00B01180000000060042
:1036C000B0118000F00FB2000000060080128000F0
:1036D00066006000E60F500002003A00B012800061
:1036E00000000600B0128000F00FB20000000600DB
:1036F00001118000E6806000E68F5000010032007A
:10370000F00FB20020118800000006008111800037
:10371000E6806000E68F500001003200F00FB2003A
:10372000A01188000000060081128000E680600081
:10373000E68F500001003200F00FB200A0128800A6
:10374000000006000000050003F0A200889FBE00F4
:103750008A9FBE008C1F7800460107004D01330090
:103760006450E1004F0032006420E100520032005A
:1037700003826C0007003B000905D0000306D0005F
:10378000820F54000C065D00020039000200320076
:1037900089017800030678008582550004003D0009
:1037A0000003FD008103FD008502EA008B854200D5
:1037B000840F720002003B0060001000E0801800DF
:1037C0006011B8000005EB007A28E1000A0039001A
:1037D00006007800C75DDD00F707B200878075003E
:1037E0002D003700828171000A01780061056000B8
:1037F0008180D1000080D3008502E900F9FF3B0001
:10380000060440008784480002003B006004140066
:10381000E0841C000988A300070032008A8171003F
:1038200082817100610164008904D1000884D300A1
:103830008B05E800170037000978A30013003A0051
:103840000B00E000130034008B05E900080444007D
:1038500089844C000A4474000978A3000D003A00E2
:103860000B00E000070034008B05E9000804440069
:1038700089844C0001003A000B0020000978A30065
:10388000F7FF32000001EB00020037008281710077
:103890000A017800BC0007000CF0A70001F0A000AE
:1038A000050137006420E10002003A00838F6C00BC
:1038B000050133000801BE000200BE00FE00370013
:1038C000889FBE008A9FBE008C1F7800E900070019
:1038D000F000330003866C006450E1002E003200DB
:1038E0006420E100330032006150E1002F0032001B
:1038F0006120E1003100320085855500EB07B00002
:1039000009002000080420000500370008044400D6
:1039100089844C000A0031000603430087834B0072
:103920000001530081815B00F8FF33000203BE00F9
:103930000800A0000804440089844C00F6FF390008
:10394000C639DD008301730001003200130020003E
:103950008904D1000884D3000998A300050032002F
:103960000800A7000300A0008904D1000884D30048
:103970008B05E8008904D1000884D3000001EB0026
:103980000281D2008000070001F0A1000CF0A70026
:1039900001F0A000C80037006420E100CA00320036
:1039A0000801BE000200BE00F7FF37006120E10001
:1039B000C50032006000B800F3FF370000002000AF
:1039C00001F82700F0FF3700839F68000100E00046
:1039D00002003D0060001000E08018000300E000DD
:1039E00002003D0060011100E0811900ED000700B8
:1039F0004F00E00002003B0060001000E080180073
:103A00000000060014002000EA013700F4FF2F0038
:103A1000E80137000001BE00810007000470A70024
:103A200003F0A1006509B100160032000D00350059
:103A30006828E10006003500F0FF2F00F1FF2700A5
:103A40000300E00013003B00010028000000050017
:103A500000004000818048008502E900FCFF3A0038
:103A600008003700F88F420002003C008000EB00A5
:103A7000000005008100D1000080D3008502E8002D
:103A8000FCFF3A000300E00002003B006000100071
:103A9000E0801800000006004F89DE0082017800F7
:103AA000DF013700889FBE008A9FBE000082700041
:103AB0000402710004827100260032000004BE007E
:103AC0000200BE006011B8006B09200095022000C2
:103AD0000182CF000A0039000541B1000082CF0009
:103AE000070039000541B1000982CF000400390008
:103AF0000541B1000882CF00010039000541B10045
:103B000005425200120032000A003B00828171001F
:103B1000610164008100D1000080D3008984D3005A
:103B20000884D3008B05E8000442E800F7FF3A0060
:103B3000070037000804440089844C000000480056
:103B4000818048008B05E9000442E900F9FF3A0052
:103B50000D0007004F05BE004F04BE000000060028
:103B60006011B800CFFF37000001EB006A010700C9
:103B7000040032000200200003F8230001F0A70037
:103B8000F1FE070000000600810020006180550062
:103B90000B003D000B00200061FE2F000100E10042
:103BA0001D00340082817100610164008904D1002C
:103BB0000884D3000000E800FAFF3A0071002000FA
:103BC0006100640003007000020060000900320020
:103BD00061044400E0844C000988A500050032001F
:103BE0008B05E8006808E10002003A008904D10072
:103BF0000884D300F20F20000258E10005003D00C8
:103C0000C75DDD00F907B200898075000800780003
:103C1000000006000BF827008B007800000005006C
:103C2000C70ADE00F107B200F50FB200080032004B
:103C3000E1CF4200020032000170A0002400050024
:103C4000810F7000010032000408050044000500E7
:103C5000810F700002003A00140005008502E9009F
:103C60000000400081C04800FCFF3B000170A00044
:103C7000240005000004BE00E9FF07000003BE00A9
:103C80000405BE000200BE00E5FF0700844F75007A
:103C9000000006000200BE006450E100050036008E
:103CA0006420E100020036000968A30001003A0028
:103CB0000800BE000160A0004F0678004F05BE005E
:103CC0004F04BE0000000600F0FF2F00F1FF2700A8
:103CD000F9FF3700889FBE008A9FBE008C1F7800C6
:103CE000E4FF0700EBFF330003866C006450E10043
:103CF000240032006420E100270032006150E1001E
:103D0000220032006120E100210032008B85420058
:103D1000EB07B1000134B800003AB80008044200D3
:103D200089844A00013AB8000030B8008880400019
:103D300009014A000400330000004000818048006F
:103D4000020149008B05E900C909DD00830170000B
:103D50000100320013002000C814DE004814DD000A
:103D60004709DE001200B200C808DE0008847000B7
:103D700085FF070001F0A1000CF0A70001F0A000F2
:103D8000CDFF37006120E100CFFF32000801BE0007
:103D90000200BE00F7FF37006150E100FCFF3A006F
:103DA000C9FF37006022B800060220000000D000E2
:103DB0008180D2000482D2008582D2000000A0005F
:103DC0000202520083825A000300310002024200C4
:103DD00083824A000000A1000603E900F3FF3A00D5
:103DE00000000600889FBE008A9FBE00300442008B
:103DF000B0844A0030054B0090854B006000B10054
:103E00000898BE000A90BE000440E10005C8E10029
:103E100006D0E10007D8E100020031006800400050
:103E20001008E8004F05BE004F04BE000000060069
:103E3000889FBE008A9FBE003004BE002005BE00E1
:103E40000418540005985C0006185D0007985D0092
:103E5000110020000440E10005C8E10006D0E100A7
:103E600007D8E100010039008000EB001088100045
:103E70004F05BE004F04BE00000006001200FA000D
:103E8000889FBE008A9FBE008C9FBE00E0B79F0047
:103E9000F1B79F0082BF9F0093BF9F000605BE0041
:103EA0000404BE000000EB00D0B79F00C0B79F0025
:103EB000B0B79F00A0B79F0090B79F0000067800A2
:103EC0005FB19700CFB09700820141003FB09700EB
:103ED0000200E00004003D00370007007E8057002C
:103EE000C0FF070003003700330007007E80570043
:103EF000CFFF0700DFB697000D00E0000C00350093
:103F00006FB29700FFB297000FBB97009FBB97005F
:103F100010002000010020006011B80000027200B3
:103F20008182720002037300838373001B00070009
:103F30000C06E80001042000810F5600E0FF3A0063
:103F40000D00E00004003D000802BE000A03BE00B0
:103F50007E805700A3FF07005FA897000000E000E5
:103F600005003A001FB29700AFB297003FB3970029
:103F7000CFB39700090007006FB09700FFB097001C
:103F80000FB997009FB997004F06BE004F05BE00BE
:103F90004F04BE000080FA00000006000100070088
:103FA00000000600A4B79F00B5B79F00C6B79F00EA
:103FB000D7B79F00000006004F09DE008281710024
:103FC000B3B79F004F01DE00818040008280700007
:103FD000A1B79F008FB097004F09DE00000040009E
:103FE0000200700090B79F007FA897004F01DE008D
:103FF000818040008280700081B79F000D00070023
:104000004F3ADE000000400004007000F0AF9F0057
:10401000080007000402420085824A0006034B00A4
:1040200087834B00DFFF07000802BE000A03BE00C3
:10403000000006002FB29700BFB297004FB3970061
:10404000DFB3970000000600881F780018002000EA
:10405000881F780089FF07008F87E9004F047800E8
:1040600000000600801FEB0084FF07008F87E90037
:1040700000000600889FBE008A9FBE008C1F78004B
:104080000006EB00E00F5000E08F5800E00F5900F1
:10409000E08F590007003D006044B8006055B8004B
:1040A0000000540081805C0002015D0083815D009E
:1040B0001C002000E00F5200E08F5A00E00F5B0070
:1040C000E08F5B0007003D006044B8006055B80019
:1040D0000402540085825C0006035D0087835D0056
:1040E0000C00A2005E0007000C00E0000600320099
:1040F0006022B8006033B8000000520081805A008E
:1041000002015B0083815B004F0678004F05BE0013
:104110004F04BE0000000600889FBE008A9FBE00BC
:104120000003BE00BEFE07008505780082815200B4
:10413000020020006220E10004003A00F307B10011
:10414000040035007718E100040035000600BE00C9
:10415000140037006000B8000F003700F50F200092
:10416000FAFF2F008502D1000A85D3008301E90000
:10417000FCFF3B008184620000046500890F74002D
:10418000F2FF32008582EA000A85EA00818462003B
:10419000000465007CFE070007F0A70001F0A00006
:1041A0000081EB000200E0004F05BE004F04BE009E
:1041B00000000600889FBE008A9FBE00841F780012
:1041C000ACFE07004F00780011003300F0FF2F0015
:1041D000838F6C0006003B00040565000A00A70001
:1041E0000800370009F0A600100020000800370082
:1041F000820F5400838F5C00030039001000200000
:1042000001003E000000200009F0A7000000EA00C5
:104210004F05BE004F04BE000000E0000000060095
:10422000881F7800030478000300E00007003D00C9
:1042300060001000E080180060011900E0811900A2
:1042400002003B0001F02D000300370015FE0700BF
:1042500008F0A70001F0A0004F047800000006005D
:10426000889FBE008A9FBE008C9FBE000404B800D9
:104270000506B8008904460060854E000606B800B1
:104280000A054600E0854E000706B8008B0546008B
:10429000040EB800890446000A854E00E0854D00F2
:1042A000050EB8000A0546008B854E00060EB800C4
:1042B0008B0546000416B8000A0546008B854E00A3
:1042C0000516B8008B054600041EB8008B05460095
:1042D0000800BE000A01BE004F06BE004F05BE002A
:1042E0004F04BE0000000600889FBE008A9FBE00EB
:1042F0008C9FBE008E1F7800010678000C00E00045
:1043000001003200000E7800800478000905780072
:104310008A047800B905FB000B007800F4FB070065
:104320000000E000F9FF3A00D0022000808F550025
:1043300003003A000905780018C0B30005003700F3
:104340000044EB00B0022000808F550001003A00CD
:10435000090578006000B8008004EB0009077800C8
:10436000010037000A05E8000A0178000848A300A8
:1043700005003A00E3C2B3009ACF110002003A00F0
:104380000844A000F7FF37009A4578008B01FB0036
:104390000303B100E98F510015003E000814A0008E
:1043A0000801FB00E98F54000D0032000240A70015
:1043B0000E07E9008904E800A200200003002000A5
:1043C0009919070002CDB30002C145000281FB002C
:1043D0008001EB000000410081804900E1FF3700CF
:1043E0000248A300DFFF3A000E07E800DDFF3700B8
:1043F00053C6B30083CF5500040032008004EB00A5
:1044000053C4B30083CF55002C003A005A417800C2
:10441000D3C2B300834F510002003A000834A00019
:1044200003003700B3C2B300834F510001003A00CC
:104430000A05E8000A017800020578003A4278008F
:1044400003C3B300834F5200FAFF32008402FB0023
:104450000503B1008004EB00E98F520015003E0017
:10446000834452008984FB000A01780012427800DC
:104470008402FB000503B100E98F52000D003E00ED
:104480006A4BB900834452008984FB00868444004F
:10449000524278008402FB000503B100E98F52000C
:1044A00004003E006A4BB900834452008984FB003B
:1044B000868444000830A7008904EA000C00E0006C
:1044C000030032000818A30001003200020E780039
:1044D00071FD07000005BE000006BE006011B800B7
:1044E00048FD0700000178006000B8000200E0000D
:1044F000580032008E84440032F82F00828F54001E
:1045000003003D0022022000120189005100370003
:1045100000082000808F5400070034002002200093
:10452000100189000808A3004500320000002000A7
:1045300001F82F00470037000900E0001B003D0094
:104540008904EA0006003700922F2000530125005D
:104550000A00BE00DAFC07000005BE00EA84540031
:10456000E98F5400F8FF3C000600370002002000ED
:10457000031224000A00BE00D1FC07000005BE00A3
:104580008904E9000900E000F8FF3A000A06BE00CD
:1045900002002000030820000A00BE0019FD0700E9
:1045A0000000E00021003D001B0037000900E00092
:1045B00007003A001D003700922F2000530125000C
:1045C0000A00BE00C3FD07000005BE00EA845400D7
:1045D000E9CF5400F8FF3E0006003700020020003B
:1045E000031224000A00BE00BAFD07000005BE0049
:1045F0008904E9000900E000F8FF3A000A06BE005D
:10460000F2FF2F00F3F727000A00BE00FFFC0700AF
:104610000000E000050034000808A3000B00320091
:1046200000002000010828000A0037000808A30045
:10463000010032000DF0A2000C00BE0005003700A2
:104640000000200001F827000200370000002000D1
:10465000010820004F0778004F06BE004F05BE003E
:104660004F04BE00000006008000EB001EFF370074
:1046700080007800010078003041780003C2B30068
:10468000834F5100FAFF3200E94F5100F8FF32002A
:10469000EDC14100834F510003003A0080007800D3
:1046A00013C0B300050037008041EB00B4C2B30073
:1046B000844F510001003A00800078000000EB00B8
:1046C000020037006A02B900040041003101FB001A
:1046D0000203B100E90F5100FAFF36000304E000C5
:1046E000010032000000EA0000000600889FBE00C2
:1046F0008A1F7800304478008004780001C2B3003B
:10470000814F5400FBFF3200E94F5400F9FF3200A3
:10471000D0C2B300804F540003003A0039447800FF
:104720001AC0B300050037000045EB00B0C2B3006B
:10473000804F540001003A00394478006000B8000E
:104740000A003700A200200003002000B61807006E
:1047500002CDB300024144000281FB008001EB0066
:104760000200400083804800394478000881FB0043
:104770000203B100E90F5100F2FF36000A04E00025
:104780000200320060001000E08018004F05780041
:104790004F04BE0000000600A20020008000EB00D5
:1047A0005A0237008001780063816100D016200032
:1047B00010003A0042062000110009008281D80052
:1047C00001017800E01620000200E00009003A0034
:1047D000C11220008380400002192000110009004E
:1047E0008280D800D01620000100E00001003A00CD
:1047F0000000E80000000600889FBE001004BE0014
:10480000C2032000030020000800BE008318070038
:10481000E0FD8800C2032000030020000800BE0065
:1048200060FD07000004BE00C2032000030020005A
:104830007A180700F0FD8800C20320000300200062
:104840000800BE0057FD07000004BE0082012000E2
:10485000030020007118070000FE8800820120007C
:10486000030020000800BE004EFD07000004BE004B
:10487000E401400072002000110009008201D8000C
:104880000101780042FE8800690420000200370020
:10489000000454008904E80009007800C1FF070003
:1048A000800F5400FAFF3D0039FE8800624060002E
:1048B00058FE88008000EB0004003700020454001A
:1048C0008100E8000080FB000000D100B2F221006E
:1048D00062C17800024170000281FB00820F540027
:1048E000F6FF3D0021FE880020FC21000808E800BA
:1048F000660050004F04BE0000000600E687470037
:104900008E1F7800D0BF9F00E1BF9F000E003700D0
:104910005FBA970014407800EFB997009340780091
:104920000201E900814F5000040032000080FB00CA
:104930008180FB00010050000600370066875700A9
:10494000041FE800030FE8000200E000F0FF3A0057
:104950000000EB004F0778006F00B1000000060078
:104960008001780002003700B15978000201E900A7
:104970000200E000FCFF3A00000006008000EB00AF
:10498000600089007100890011C0B300A0002200FE
:104990000148780000000600A00022001004E0009A
:1049A00002003A0010002000F4FF0700D2E62400C5
:1049B000631C240060008100710081001A18070048
:1049C000920323000300200000014100818149007F
:1049D00062008900730089000300780000F0A100E4
:1049E000000006000C00FA00889FBE00000478005A
:1049F000F0FF2700D0BF9F008004EB0099BF9F000D
:104A000088BF9F00A8BF9F00200C2000B0BF9F0060
:104A100078815700CFB09700708057005E0B070079
:104A20000FB89700094878008FB8970008805000A9
:104A30004F04BE000080FA0000000600000178006C
:104A400002007800B041780081CF510003003200AD
:104A50000304E000F9FF3A000001EB0002007800D7
:104A600000000600B041780031C1510002003A0058
:104A70000304E000FBFF3A000200FB000000060018
:104A800000017800B1417800035978000304E00088
:104A9000FCFF3A0000000600800078003104E000CE
:104AA000FEFF3A000080EA0000804000000006009F
:104AB00000027800840178003404E000FDFF3A0031
:104AC000010037000201E9000200E00005003200A9
:104AD00031427800845978000404E000F9FF3A007C
:104AE0000000060082497800000006000A00370036
:104AF000B04178000304E000030032000201E90045
:104B0000B1CF5100040032008381FB001480FB0010
:104B10000080510000000600010278000200E00061
:104B2000F3FF3A000000050080017800060037001E
:104B30000201E900B142780085597800030278004B
:104B40000504E00006003200030278000200E000E5
:104B5000F7FF3A0002003700005AEB000201E900BB
:104B60000200E000FCFF3A0000000600889FBE0043
:104B70008A1F780001057800800478000004EB00AB
:104B8000010037000804E800B94078000104E000A3
:104B9000050032008100FB000A007800A7FF070033
:104BA0000000E000F7FF3A00080078004F057800A9
:104BB0004F04BE0000000600889FBE000004BE0037
:104BC0000B00370009007800B3FF070000017800F0
:104BD0000800BE00C5FF07000000E0000900320029
:104BE0000800E8009900FB0094FF0700000478002B
:104BF0000800E000030032001804E000F1FF3A0072
:104C00000004EB00080078004F04BE00000006001E
:104C1000889FBE000004BE000800E00003003A00C8
:104C2000280181000800E000130032000800BE00E7
:104C3000CEFF0700000444001804E00004003A001E
:104C40000000EB0020018900000478000A00370012
:104C50000800BE004A14070000004400200189003B
:104C60001004E000020032000058EB0001003700A1
:104C70000000EB0020018900080078004F04BE000E
:104C800000000600E6874700889FBE008A9FBE009E
:104C90008C9FBE008E1F7800810678008204780009
:104CA0008000EB00110189000D00E00001003200DE
:104CB000800E780000057800BA4078000A04780079
:104CC0000100FB0081BF9F0089F907008FB89700A2
:104CD0000000E000F8FF3A00D0C2B30080CF5000DF
:104CE00004003A000A047800B84078001EC0B300FF
:104CF000050037000047EB00B0C2B30080CF500082
:104D000001003A00B840780000C3B30080CF5000E3
:104D100012003A00B84078000900E00002003200BA
:104D2000F08F540058003A0080C7B30080CF500085
:104D30000300320080C5B30080CF500003003A006A
:104D4000B8407800090120004F0037000900E0005A
:104D50004D003A00890020004B0037000046EB0070
:104D60000900E00002003A000046EB00A900200024
:104D70006055B8000101FB000200780081BF9F0070
:104D8000F2B79F0050F907008FB897007FB19700E6
:104D90000000E000050032000200780069F9070019
:104DA00091CCB30001424000050037000203B1007E
:104DB000E90F51001E003E0004CDB30004C24000C4
:104DC0000400FB00890F500019003D000402FB00A5
:104DD000CFA2DE006149B9000A00BE00F4B79F000F
:104DE00085BF9F00101707007FB297008FBA97000A
:104DF00004024000858248000800E800840F550046
:104E0000858F5D0005003600210220001101890018
:104E10000004780010C0B300060037009840780006
:104E2000000478000405BE001CC0B300D1FF3700A9
:104E30000040EB000C04E000030032000D00E00035
:104E400001003200880EE900E14F500005003200F9
:104E50000E04E0000500320060051500E0851D002D
:104E6000020037000085EB008085EB000A00BE00E1
:104E70004F0778004F06BE004F05BE004F04BE002E
:104E80006F00B100000006001CC0B300B8FF37007F
:104E9000F8874700889FBE008A9FBE008C9FBE0097
:104EA0008E1F780001077800820678000E00E0006F
:104EB00001003200000F780000047800B844780048
:104EC000080678000900FB0009F907000000E0006F
:104ED000FAFF3A0089407800D0C2B30080CF50007A
:104EE00005003A0008067800BC40780010C0B30006
:104EF000D0E79F00060037000042EB00D4E79F0098
:104F0000B0C2B30080CF500001003A00BC4078002E
:104F100000C3B30080CF500012003A00BC407800BC
:104F20000D00E00002003200F08F560010003A0041
:104F300080C7B30080CF50000300320080C5B300AB
:104F400080CF500003003A00BC4078000D012000E3
:104F5000070037000D00E00005003A008D0020003A
:104F6000030037000D00E00001003A00AD00200012
:104F70008042EB00C5E79F006044B8006055B80070
:104F80000101FB0002007800C1B79F00B2B79F008B
:104F9000CDF80700CFB097003FB197000000E000C8
:104FA0000400320002007800E6F8070091CCB3005C
:104FB000040037000203B100E90F510031003E0048
:104FC00000CDB30080C040000100FB008D0F5000F9
:104FD0002C003D000102FB00CFA2DE00612BB900D6
:104FE000E4AF9F00F5AF9F0086B79F0097B79F0083
:104FF000616AB900612BB9000800BE000A01BE0059
:105000001CFC07006FAA9700FFAA97000FB3970038
:105010009FB397000002420081824A0002034B00C6
:1050200083834B00D4B79F00E5B79F00F6B79F007E
:1050300087BF9F000C00E8000440E10005C8E100C4
:1050400006D0E10007D8E10005003600210220006B
:10505000110189000006780010C0B3000A00370073
:105060009C407800000678005FB49700EFB497008A
:105070007FB597008FBD970015C0B300C5E79F00AF
:10508000BFFF37000040EB000E00E00008003200D8
:105090004FE397000604E00004003A001E01780088
:1050A00001C3B30092CF100001003A000C0FE900D9
:1050B000E14F50000A003200DFE397000704E000F0
:1050C0000A0032006000B8006011B8000804500007
:1050D000898458000A0559008B8559000300370060
:1050E000F8FF2F00F9FF2F000805BE000800BE00E2
:1050F0000A01BE004F0778004F06BE004F05BE00F4
:105100004F04BE008F01B10000000600889FBE0062
:105110008A9FBE008C9FBE008005780081047800C5
:10512000820678000B0678000C0578000A067800E5
:105130003C4478000800FB006DF807000000E00028
:10514000F9FF3A00D0C2B300804F54000300320090
:1051500000C0E900804F540002003A000A05E80050
:1051600001003700004478000D01780089007800C4
:105170000A00780046FF07000900E000090032003D
:10518000990F550033003A008B0C7800310037003E
:10519000E00F5000E08F5800E00F5900E08F5900F9
:1051A00014003A00B4C2B300844F540006003A0021
:1051B000E00F5000E08F5800E00F5900E08F5900D9
:1051C00020003D000B003700D4C2B300844F5400D0
:1051D0001C003A006022B8000600200007002800EA
:1051E0000400E1000588E1000690E1000798E10075
:1051F0000900360020022000100189006B404000A9
:10520000804F54000B003A006000B80002002000FC
:10521000030028000B0037006022B8006033B8009C
:105220000000520081805A0002015B0083815B0014
:1052300004003700F0FF2F00F1FF2F00F2FF2F00D6
:10524000F3FF27004F06BE004F05BE004F04BE000F
:1052500000000600998F5500D2FF3A00CCFF3700BE
:105260000C00FA00A0BF9F00C0BF9F000AFE07000D
:10527000B0BF9F00F0BF9F00100C2000D0BF9F0068
:1052800074815700EFB097006C805700340007001E
:105290000080FA0000000600881F780030018100BD
:1052A000F7110700000478000800780010F80700E4
:1052B0000000E000F9FF3A00E10F44000300320073
:1052C0003101810008007800C01207004F04780007
:1052D00000000600889FBE008A1F78000004780046
:1052E000814478000205780000FD2F00080040008E
:1052F000E90F500002003E00000478001000370063
:105300000800780002F807000000E0000500320005
:105310000A00E000030032000800780002F80700ED
:105320000004780008007800E7F7070080007800A4
:1053300000C0EB000100E000060032007805B1007B
:105340008984FB0000C0EB00890F540001003D0080
:10535000084078004F0578004F04BE0000000600AA
:10536000F0874700889FBE008A9FBE008C9FBE00CA
:105370008E1F7800010578008204780030018900D2
:105380000000EB00C0B79F00E0B79F000044EB00B7
:10539000600137000A05E8000B86FB000C0078006E
:1053A000D3F707000000E00002003200BAFF070058
:1053B0005501370050C2B30080CF550043013A0079
:1053C0008046EB0021C0B3000D4678000A0078004B
:1053D00001477800040037004EC0B30001003700D9
:1053E0002EC0B3000A007800BA45780091C6B30019
:1053F00081CF5500A30032001C003E00E6C05000E3
:1054000081CF55007700320011003E00F7C05000F8
:1054100081CF55002C00320006003E000B04E00056
:10542000BD003200A1C2B30081CF550082003A0016
:105430002300370081C5B30081CF55007E003A00BC
:105440000E407800B0EF9F001100200025003700CB
:1054500041C6B30081CF55008A003200E4C040004D
:1054600081CF550074003A00DDFF3700F1C6B3006C
:1054700081CF55008700320007003E00E3C0500096
:1054800081CF55001000320081C0E80081CF550067
:1054900069003A001600370051C7B30081CF5500AC
:1054A00078003200E3C0400081CF55000A0032008E
:1054B000E5C0500081CF55005F003A001C00370066
:1054C0000C46E800C7FF3700E24F5700C2FF32002A
:1054D0008EC0B300C3FF37000E407800B0EF9F00CE
:1054E0008000EB00C1B79F0000C1B3006C00370023
:1054F0008E407800B1EF9F000C04E00069003A0094
:105500008984E900E4CF500005003A0019007800D2
:10551000EFB097006109B9000288BE006100370052
:1055200019007800EFB09700010878005D0037009F
:1055300059FF07000C04E00002003A00490078001F
:10554000B0B79F00300181004D1107008005780041
:10555000E18F4500020032006FB79700140037005A
:105560000B007800E20037000E07E8001A00FB008D
:10557000808F550002003A000A05E800130037004A
:105580000C04E00003003A00BFB097008B5878008D
:10559000B1B79F00CFE8970001C046008E4F500082
:1055A0000A003200300181003511070080057800C3
:1055B0000B00E800E10F5000040036000B007800FB
:1055C0004BF707000000E000E7FF32000C04E000AA
:1055D000CE003A000844E8003FB097000C4878003D
:1055E000CA0037000C04E00003003A000844E80059
:1055F000C9007800B1B79F006FB79700BFB597009B
:10560000300181001E110700E10F4000B800320098
:105610000C04E00002003A000E07E800805D78000C
:105620008D46E9004240A900F5FF3C000B007800E0
:10563000B0B79F00B50037008B85FB0001FD2F0040
:105640008B804000E98F500009003E0008FC0700F5
:10565000804678008A007800010578003100FB0060
:105660000003B100E90F5000FBFF36005DFF37007B
:105670003001810002110700808F550097003A0029
:10568000A10037008E407800B1EF9F00A0C0B300AA
:10569000030037008E407800B1EF9F0080C0B30058
:1056A000A0EF9F00FCFE070030018100F41007000E
:1056B00080057800EFB097008100E800E1B79F0017
:1056C0000040EB00D0E79F00D0022000808F550003
:1056D00008003A0030018100E910070080057800D9
:1056E000EFB097008100E800E1B79F0010C0B30061
:1056F000D0E79F004FB19700AFE897000B0078000C
:10570000F4FE0700E14F40000C003A003101810037
:105710000B007800AD1107000804E00080003A009B
:1057200030018100B00090000000EB000148A300B0
:105730007C0032000080EB007A003700000320007C
:10574000808F550018003A0030018100CC1007000E
:1057500081072000810F500004003A00CFB097006D
:105760000100E000070032000D0037008105200035
:10577000810F50000A003A00CFB097000100E0000E
:105780000700320030018100BD100700800578005D
:105790006FB097000080E800E0B79F00020037007C
:1057A00031018100891107006022B800C8E79F001D
:1057B000090778000404BE0001003700E3B79F002A
:1057C000AFE897000181FB008001EB000800BE00FC
:1057D000951407000004BE004FB19700AFE8970092
:1057E0000B007800BBFE07000080FB008000EB0090
:1057F0000004440081844C006FB097008001E800F1
:105800008D46E9000B00320030018100F3B79F00A4
:105810009B100700800578004FB19700AFE8970014
:105820000B007800ABFE0700FFB19700E14F40008E
:10583000E2FF3A000802BE004FE497008E047800B1
:10584000030778004FB19700AFE897000B0078008E
:10585000F4B79F0085BF9F009EFE07007FB29700B0
:105860008FBA9700E14F400006003A0031018100F5
:105870000B007800551107006FB797008FBA97009B
:105880007FB29700DFE097000104E00002003200E1
:1058900060021200E0821A000C04E0001B003A00D3
:1058A0000844E8008984E9003FE89700E44F50008D
:1058B00003003A00190078000488BE001300370086
:1058C00019007800040878001000370030018100CA
:1058D0006B100700800F560008003200E10F4000F7
:1058E0000300320031018100381107000C0037003D
:1058F0000804E0000A003A000A0037006FB0970081
:105900000007E800010037006FB797008E007800AD
:10591000E1B79F009A4578000B04E0009DFE3A0035
:105920000880FB004F0778004F06BE004F05BE0001
:105930004F04BE000F01B100000006000C00FA0089
:10594000889FBE0000047800F0FF2700D0BF9F00B2
:105950008004EB0099BF9F0088BF9F00A8BF9F00F5
:10596000200C2000B0BF9F0078815700CFB0970077
:1059700070805700CF0007000FB8970009487800E3
:105980008FB89700088050004F04BE000080FA00D6
:10599000000006000800FA00889FBE008A9FBE0033
:1059A0000084FB00D1C6B300814F500034003600A4
:1059B0004B062000110009000B84D80081057800F7
:1059C000720040004300DD0089A8210000804400EF
:1059D0006022B8000600200007FE23005001BE0030
:1059E0004000BE006A1307000002BE000203BE00B2
:1059F00084BF9F0095BF9F00A6BF9F00B7BF9F00B9
:105A0000AA002000110009008A85D80080057800CE
:105A1000E9854500C35DDD008B8544003B02BE0087
:105A20002B03BE000FB897009FB897002FB99700BF
:105A3000BFB99700561307000002BE000203BE0064
:105A400084BF9F0095BF9F00A6BF9F00B7BF9F0068
:105A5000110009000A84D800010478004344DD00E5
:105A6000888444003902BE002903BE000FB89700A5
:105A70009FB897002FB99700BFB997001D00370056
:105A8000EA4F500013003600AA0020001100090060
:105A90000A84D80001057800690440004344DD0011
:105AA00089A82100088444006022B8000600200074
:105AB00007FE23003800BE002801BE003413070093
:105AC0004355DD008A8444003902BE002903BE002C
:105AD000080037004344DD0080A82100080440008E
:105AE0006022B8000600200007FE23003800BE0038
:105AF0002801BE00261307004F05BE004F04BE005C
:105B00000080FA00000006000800FA00889FBE002E
:105B10008A9FBE00D1C6B3000004E00023003D0010
:105B20000040EA000004FB00814F50000A003400EE
:105B300042062000110009000204D800A90020003C
:105B4000110009008900D800E9004000C308DD0009
:105B50008AA8210021003700EA4F500010003400CD
:105B6000A2002000110009000204D8000101780001
:105B7000690040004300DD0081A821000080400052
:105B80004311DD00828040003102BE002103BE00CF
:105B90005001BE004000BE00FD1207003800370073
:105BA0004344DD0080A82100320037000004FB00E0
:105BB000814F5000230034004206200011000900EC
:105BC0000204D800A9002000110009008900D800B3
:105BD000E9004000C308DD008A9D210081004500E6
:105BE0003102BE002103BE008B0920008A854500DA
:105BF0003B00BE002B01BE00E51207000002BE0004
:105C00000203BE0084BF9F0095BF9F00A6BF9F00F8
:105C1000B7BF9F00110009000904D80001047800F3
:105C20004344DD00080545003A02BE002A03BE00D9
:105C30000FB897009FB897002FB99700BFB997008A
:105C4000D5FF3700EA4F500008003400A2002000C2
:105C5000110009000204D800010178006900400029
:105C60004300DD00819D2100C4FF37004344DD0077
:105C7000809D2100080440003800BE002801BE00BD
:105C80004F05BE004F04BE000080FA000000060071
:105C9000D0019000028151004240A900030034006D
:105CA00010017800014978000208E800010078003E
:105CB00000000600EF03B000889FBE008A9FBE0070
:105CC0008C9FBE008E1F780000067800D1A79F0031
:105CD000A2AF9F006000B8006011B80080A79F00CD
:105CE00091A79F00A2A79F00B3A79F008006EB008B
:105CF000DE053700DFA097008100E800D1A79F00F4
:105D000051C2B300814F500003003A005FA19700D9
:105D10000007EB0011003700BC0090000000FB0002
:105D20000168A300070032000D01780080007800B0
:105D30000C007800D6FF07000000E00005003A00E4
:105D4000CA0537008C007800CA0F0700E10F400039
:105D5000C60532008D06E800C40537000200780051
:105D6000B2407800D3C2B30083CF50000C003200A1
:105D700007003C00EDC1510083CF50000A00320003
:105D8000EBC1410083CF50000D003A0008003700FE
:105D900003C3B30083CF500009003A000600370068
:105DA0000E30A000EDFF37000E00A000EBFF370023
:105DB0000E10A000E9FF37000E20A000E7FF37001B
:105DC0000E10A7000E00A1000E30A7000E20A100AB
:105DD0000101FB000203B100E90F51000E003E007B
:105DE000800078000001EB00C2AF9F006A11B9008B
:105DF0003100FB000003B100020140000100780007
:105E00009101FB000303B100E98F5100F7FF360059
:105E1000C2AF9F000A0037008001EB00C3AF9F00B4
:105E2000A2C2B30082CF500005003A002FAA97000B
:105E3000C4027800A4AF9F00C5AF9F000000E80037
:105E4000E1C2B30090CF100016003A000EE0A000AF
:105E5000E4C05000D0CF1000030032008000780072
:105E60008001EB0008003700AFAB970047047800D3
:105E7000A7AF9F00B8AF9F000000E8000C003700FC
:105E80006A1AB90084014100010078003101FB0069
:105E90000203B100E90F5100F9FF3600B3AF9F00D4
:105EA000030037000EC0A0008004EB00B9AF9F00D4
:105EB000000178008200780031407800010178000C
:105EC00093C6B300834F50003000320016003C00F0
:105ED000E6C15100834F5000B60032000A003C007A
:105EE000F7C15100834F50002B003200D1A79F0013
:105EF00081C5B300814F5000340032000004E0003F
:105F00005F053200CA003700D1A79F0041C6B30029
:105F1000814F50001E00320081C0E800814F5000C8
:105F2000C3003A002200370003C7B300834F50007C
:105F30002500320008003C00E4C15100834F5000AE
:105F400015003200D1A79F00F1C6B300814F500069
:105F5000B7003A0019003700D1A79F0051C7B3001E
:105F6000814F5000B9003200E3C04000814F500023
:105F700004003200E5C05000814F5000AC003A00F0
:105F800016003700E0779F0012003700D1A79F006E
:105F9000E0779F00AF003700000120000E48A3000B
:105FA00001003200000028000E077000C1FF37001A
:105FB000E0779F000EA0A000A6003700E0779F00CA
:105FC0000E60A000A3003700D1A79F00E0779F00DC
:105FD0000E50A0000E70A0009E003700E0779F00DA
:105FE0002FAD97004A007800AAAF9F00D0AF9F0066
:105FF0000000E00002003A00A0B52100D0AF9F00F1
:10600000DFA897000000EB00010037000000E80067
:10601000614178000204E000FCFF3A00E0AF9F001D
:10602000BFA897000100E000050032006FA99700AB
:10603000828F50000200310081017800E3AF9F00A1
:106040006FA897000004EB004FAA9700800F520042
:106050000100360000045200680767002D003A0076
:10606000110037003C0090000068A30007003200D8
:106070000D017800010220000C00780004FF0700E9
:106080000000E00006003A00060037008C007800AF
:1060900000022000F70E0700E10F4000010032006F
:1060A0008D06E8000804E9000800E000EDFF3A0072
:1060B0000084EB008E027800B5AF9F001700370018
:1060C0003C0090000068A30009003200080078003E
:1060D000B000FB00000478000D0178000C0078008F
:1060E000EBFE07000000E00008003A001000370057
:1060F000880078003100FB00010478008C007800F3
:10610000DC0E0700E10F4000090032008D06E800B8
:10611000070037000E037800B6AF9F00080778002D
:106120005FAC9700EFAC97007FAD97008FB59700FD
:10613000090078008004E9000000E000E0FF3A0078
:10614000D8AF9F00E9AF9F00FAAF9F008BB79F00C9
:106150000E0478003FAF97000E00E000C304320049
:10616000110037003C0090000068A30007003200D7
:106170000D017800010220000C007800C4FE070029
:106180000000E00006003A00060037008C007800AE
:1061900000022000B70E0700E10F400001003200AE
:1061A0008D06E8000804E9000800E000EDFF3A0071
:1061B000AE043700D1A79F00AFA897004104780034
:1061C000A1AF9F00CFC4DE00614DB9000802BE0040
:1061D0000A03BE004822DE004829DD0004027100E7
:1061E000E4779F000E48A300090032000404E00099
:1061F00007003200E14F420005003200F4779F00B3
:10620000887F9F0023002000E3AF9F00030037003A
:10621000F8779F0014002000E4AF9F0065FB2F007B
:106220008F8242008502E800D5AF9F007CFF3700D7
:10623000E0779F0066FB2F0006834700D6AF9F00E4
:1062400017002000E7AF9F0075FF3700E0779F0041
:106250000E0CB30000702000000067006F023200D7
:106260000EC8A3000200320068002000B8AF9F00F3
:106270000E48A300060032002FA8970068005000C7
:106280003004BE002005BE00A0AF9F00060037000E
:106290002FA997004200BE00A2AF9F008410070004
:1062A0000004BE000205BE006022B8006033B800E2
:1062B0000800BE000A01BE00CF0F07000000E0008A
:1062C00002003D000BF0A2003E00B3000000EB0016
:1062D000D09F9F006022B8006033B8000800BE0065
:1062E0000A01BE00281007000000E0003300320061
:1062F000A4FB2F000F0242000800BE000A01BE00EE
:10630000031107005F9897000000E9006302B900DD
:10631000A2002000110009000202D800D09F9F00B7
:106320000000E00002003D000000E900D09F9F0057
:106330005F999700D2AF9F000240EA00F2FD07008C
:106340000802BE000A03BE00111107000002BE00D1
:106350000203BE0084A79F0095A79F00A6A79F00E9
:10636000B7A79F006022B8000600200007FF2300A7
:10637000A10F07000000E00003003D00DFAA970026
:106380000500E9000C0037006022B800060020007C
:10639000470224000FA097009FA097002FA197000D
:1063A000BFA19700990F07000000E000030035002F
:1063B0005FAB97000600E800D09F9F00BFAB97003F
:1063C000F88F530009003C000740780071FD07007A
:1063D0000002BE000203BE000800BE000A01BE00AB
:1063E000070F07000004BE000205BE005F9897007B
:1063F000D0AF9F00E90F500012003C006022B800AF
:106400006033B8000800BE000A01BE00DE0F0700BE
:106410000000E0002F0032000800BE000A01BE00AC
:1064200042100700E00F5000E08F5800E00F5900C5
:10643000E08F590027003A00DFA89700E18F500055
:10644000240034000400200005002E00B6E02200E5
:10645000170124000FA097009FA097002FA197007D
:10646000BFA19700640F07000000E00003003D009B
:106470005FA997007300510002003700DFA9970061
:1064800072805100D09F9F002F7897009EFD0700DB
:106490000002BE000203BE0084A79F0095A79F00D4
:1064A000A6A79F00B7A79F000800BE000A01BE0074
:1064B0005B0F07001D100700D0AF9F00E1AF9F00EA
:1064C000F2AF9F0083B79F006044B8006055B800EA
:1064D000110037000800BE000A01BE0013100700BB
:1064E000D0AF9F00E1AF9F00F2AF9F0083B79F0046
:1064F0005A1007000002BE000203BE000800BE00E2
:106500000A01BE00181107000004BE000205BE000B
:106510000000EB00D09F9F00A5B6210014C0B3007F
:106520000800BE000A01BE00D0B79F00E1B79F007F
:10653000F2B79F0083BF9F00100037003504BE00F4
:106540003505BE00E8A79F00F9A79F008AAF9F000E
:106550009BAF9F005FA89700EFA897007FA99700C7
:106560008FB197000800E1000988E1000A90E1007E
:106570000B98E100030039000442E800F44F520098
:10658000EEFF3A005FB49700EFB497007FB5970035
:106590008FBD9700E4779F005F989700CFA8970082
:1065A000008050003FA99700820050000400FB00CB
:1065B00000805000C0AF9F000200E00002003200E7
:1065C0000000E900C0AF9F006300670003003200D5
:1065D000CFA997008301E900C3AF9F000E28A30055
:1065E00050003200610167000E18A3000F00320056
:1065F0003C0090000068A30006003200B1022000B9
:106600000200E000010032008180E8000D01780006
:106610000D003700B00220000200E000010032004F
:106620000080E8008C0078000E0037000200E000D7
:10663000330032003C0090000068A30007003200E5
:106640000D017800010220000C00780090FD070089
:106650000000E00006003A00290037008C007800B6
:1066600000022000830D0700E10F400024003200EB
:106670008D06E800220037003C0090000068A3006F
:106680000F0032000D017800010320000C0078009B
:10669000B4B79F00C5B79F0096B79F00A7B79F00EC
:1066A0007BFD07003FB29700CFB297001FB3970062
:1066B000AFB397000000E0000E003A000E00370074
:1066C0008C00780000032000B4B79F00C5B79F007E
:1066D00096B79F00A7B79F00660D07003FB29700CF
:1066E000CFB297001FB39700AFB39700E10F400000
:1066F000010032008D06E8008904E900030037003C
:106700000802BE000A03BE00CFAC97000900E000FB
:10671000D9FF3C00C9AF9F000404BE000605BE00BF
:106720007A0037000E38A30020003A000800BE00AF
:106730000A01BE00E0A79F00F1A79F0082AF9F0063
:1067400093AF9F00CFAC9700110037003C00900042
:106750000068A300070032000D017800010220004C
:106760000C0078004AFD07000000E00006003A0037
:10677000060037008C007800000220003D0D070065
:10678000E10F4000010032008D06E8008904E900B5
:106790000900E000EDFF3C00C9AF9F006FA4970027
:1067A000FFA497000FAD97009FAD970061016700B0
:1067B0000E18A3000F0032003C0090000068A300F8
:1067C00006003200B10220000200E00001003200A9
:1067D0008180E8000D0178000D003700B002200034
:1067E0000200E000010032000080E8008C00780028
:1067F0000E0037000200E0003D0032003C00900037
:106800000068A300070032000D017800010220009B
:106810000C0078001EFD07000000E00006003A00B2
