:020000040000FA
:10000000000404000000000078B80100A4B801005A
:10001000D0B80100FCB8010028B9010078B801008F
:1000200078B8010078B8010078B8010078B801000C
:1000300078B80100BED2010078B8010078B801009C
:1000400078B801001639010078B8010078B80100CD
:1000500078B801006CF700002AF7000078B80100BA
:1000600078B8010078B8010078B8010078B80100CC
:1000700078B80100F0DD00005AD6010078B8010020
:1000800078B8010078B8010078B8010078B80100AC
:100090003A39010036B80100C4DE000078B801002A
:1000A00078B8010078B8010078B8010078B801008C
:1000B00078B8010078B8010078B8010078B801007C
:1000C00078B8010078B8010078B8010078B801006C
:1000D0005A39010078B8010078B8010078B80100F9
:1000E00078B8010078B8010078B8010078B801004C
:1000F00078B8010078B8010078B8010078B801003C
:1001000078B8010078B8010078B8010078B801002B
:1001100078B8010078B8010078B8010078B801001B
:1001200078B8010078B8010078B80100C4F7000081
:1001300078B8010078B8010078B8010078B80100FB
:1001400078B8010078B8010078B8010078B80100EB
:1001500078B8010078B8010078B8010078B80100DB
:1001600078B8010078B8010078B8010078B80100CB
:1001700078B8010078B8010078B8010078B80100BB
:1001800078B8010078B8010078B8010078B80100AB
:1001900078B8010078B8010078B8010078B801009B
:1001A00078B8010078B8010078B8010078B801008B
:1001B00078B8010078B8010078B8010078B801007B
:1001C00078B8010078B8010078B8010078B801006B
:1001D00078B8010078B8010078B8010078B801005B
:1001E00078B8010078B8010078B8010078B801004B
:1001F00078B8010078B8010078B8010078B801003B
:10020000000000000000000078B80100A4B8010060
:10021000D0B80100FCB8010028B9010078B801008D
:1002200078B8010078B8010078B8010078B801000A
:1002300078B80100BED2010078B8010078B801009A
:1002400078B801001639010078B8010078B80100CB
:1002500078B801006CF700002AF7000078B80100B8
:1002600078B8010078B8010078B8010078B80100CA
:1002700078B80100F0DD00005AD6010078B801001E
:1002800078B8010078B8010078B8010078B80100AA
:100290003A39010036B80100C4DE000078B8010028
:1002A00078B8010078B8010078B8010078B801008A
:1002B00078B8010078B8010078B8010078B801007A
:1002C00078B8010078B8010078B8010078B801006A
:1002D0005A39010078B8010078B8010078B80100F7
:1002E00078B8010078B8010078B8010078B801004A
:1002F00078B8010078B8010078B8010078B801003A
:1003000078B8010078B8010078B8010078B8010029
:1003100078B8010078B8010078B8010078B8010019
:1003200078B8010078B8010078B80100C4F700007F
:1003300078B8010078B8010078B8010078B80100F9
:1003400078B8010078B8010078B8010078B80100E9
:1003500078B8010078B8010078B8010078B80100D9
:1003600078B8010078B8010078B8010078B80100C9
:10080000CF8020000E7F24000E0188000000000031
:100810000C000700401F210001002000110007000C
:10082000000020000000E000020032000000020092
:1008300000000000BC100200000000000040DA00D0
:100840000000FE004440A900200C20000000E00051
:100850000300320000002000A00188004440A800EE
:100860000000060091018800800078000000EB0085
:1008700015003700E280400032A0B4009101BA00B8
:10088000E280400032A0B4009102BA00E280400051
:1008900032A0B4000002EB00472BDE00F507B200E7
:1008A000602CE10004003A000059EB008301E900EC
:1008B000FDFF3E00040037006128E1000100320026
:1008C0000082EB00040007001101BA000200E00002
:1008D000E8FF3A00000006003159BA008301E90040
:1008E0000C0032002159BA008301E90008003200EF
:1008F0000400E00003003A00E280400032A0B400AF
:10090000F5FF370011D9BA008301E900FAFF3A0078
:100910008100E800E180400032A0B4000000060041
:100920000040DA000000FE000000000000000000AF
:1009300000000000000000000000000000000000B7
:1009400000000000000000000000000000000000A7
:100950000000000000000000000000000000000097
:100960000000000000000000000000000000000087
:100970000000000000000000000000000000000077
:100980000000000000000000000000000000000067
:100990000000000000000000000000000000000057
:1009A0000000000000000000000000000000000047
:1009B0000000000000000000000000000000000037
:1009C0000000000000000000000000000000000027
:1009D0000000000000000000000000000000000017
:1009E0000000000000000000000000000000000007
:1009F00000000000000000000000000000000000F7
:100A000000000000000000000000000000000000E6
:100A100000000000000000000000000000000000D6
:100A200000000000000000000000000000000000C6
:100A300000000000000000000000000000000000B6
:100A400000000000000000000000000000000000A6
:100A50000000000000000000000000000000000096
:100A60000000000000000000000000000000000086
:100A70000000000000000000000000000000000076
:100A80000000000000000000000000000000000066
:100A90000000000000000000000000000000000056
:100AA0000000000000000000000000000800FA0044
:100AB000C5C2A800C1C2A900C9C2A900C1E2A8005C
:100AC000C922A90010138000000F780061C2BF0086
:100AD0000080FB004700DE002047980061E2A9008B
:100AE000B01320001013880061E2A8000000EB00A2
:100AF000201388000000EB000013880061E2A800CA
:100B0000C5C2A9000009200040138800000037007A
:100B100060C2BF00624060000004E000FCFF3A00D9
:100B200060C2BF00614060000004E000F8FF3200D6
:100B300040138000404798000040EB003047980089
:100B4000100037000000EB00401388000000370061
:100B500060C2BF00624060000004E000FCFF3A0099
:100B600060C2BF00614060000004E000F8FF320096
:100B700040138000404798003E4090000040E8004D
:100B8000304798003E409000E44F5000EDFF3600A3
:100B9000C5C2A8000040EB0004E8B7004E4090003A
:100BA0000080FB003007980090042000BE009000F9
:100BB000808F500009003C0080042000BE0090009F
:100BC000808F50000A003D0030042000BE009000DD
:100BD000808F50000600320009003700B00420006A
:100BE000BE009000808F50000300320004003700E8
:100BF0000428A800030037000448A80001003700BB
:100C00000408A80040C0B300B102070000C5B3004B
:100C1000AF020700C5C2A9001000200040138800E1
:100C20000000370060C2BF00624060000004E000C6
:100C3000FCFF3A0060C2BF00614060000004E000B9
:100C4000F8FF320040138000404798000000EB009E
:100C5000401388000000370060C2BF00624060009F
:100C60000004E000FCFF3A0060C2BF006140600089
:100C70000004E000F8FF3200401380004047980075
:100C8000C5C2A80061E2A9001E0078001013880008
:100C90002E40900061406000C700DD0061C2BF00CF
:100CA0000074A1000140700061E2B7000080FA000A
:100CB000000006000C00FA00200798003107980099
:100CC00042079800530798004E0090000000E00093
:100CD0006F0032005E0090000000E00001003A006A
:100CE0006B00370010138000000F780061C2BF0056
:100CF0000080FB004700DE002047980061E2A90069
:100D0000B01320001013880061E2A800C5C2A9003A
:100D100030002000401388000000370060C2BF0090
:100D2000624060000004E000FCFF3A0060C2BF00C7
:100D3000614060000004E000F8FF320040138000D2
:100D400030479800640047000080E80010407800B9
:100D50000080FB00401388000000370060C2BF0025
:100D6000624060000004E000FCFF3A0060C2BF0087
:100D7000614060000004E000F8FF32004013800092
:100D800030479800640047000000E80010407800F9
:100D90000080FB00401388000000370060C2BF00E5
:100DA000624060000004E000FCFF3A0060C2BF0047
:100DB000614060000004E000F8FF32004013800052
:100DC0003047980064004700104078000080FB0026
:100DD000401388000000370060C2BF00624060001E
:100DE0000004E000FCFF3A0060C2BF006140600008
:100DF0000004E000F8FF3200401380003047980004
:100E0000120037000000EB0040138800000037009C
:100E100060C2BF00624060000004E000FCFF3A00D6
:100E200060C2BF00614060000004E000F8FF3200D3
:100E300040138000804078004E0090000148780008
:100E40004E0090000000E800400798005E0090000F
:100E50000000E900500798005E009000E10F40009C
:100E6000E8FF3A00C5C2A80061E2A9001E007800B0
:100E7000101388002E40900061406000C700DD0024
:100E800061C2BF000074A1000140700061E2B700C0
:100E90000080FA00000006000400FA00008FBE0087
:100EA0001E00BE0000408800114088000080FA004B
:100EB000000006000A00FA00404798001013800066
:100EC000000F780061C2BF000080FB004700DE0019
:100ED0002047980061E2A900B01320001013880099
:100EE00061E2A8000040800011408000F2FF200075
:100EF00003002000000278008102780002007800E0
:100F00008300780000016200018062006102B80085
:100F100034079800450798003E009000CE009000EE
:100F2000C000DD0000002000300798004107980055
:100F30003E009000CE0090006112B8003407980087
:100F4000450798003E019000CE019000020070001D
:100F500083807000E00F5000E08F580003003A00DB
:100F600000408000114080007F01070060C0B30096
:100F7000D7010700C5C2A900200020004013880047
:100F80000000370060C2BF00624060000004E00063
:100F9000FCFF3A0060C2BF00614060000004E00056
:100FA000F8FF320040138000304798000080200096
:100FB0000080E800104078000080FB0040138800AB
:100FC0000000370060C2BF00624060000004E00023
:100FD000FCFF3A0060C2BF00614060000004E00016
:100FE000F8FF320040138000304798000080200056
:100FF0000000E800104078000080FB0040138800EB
:101000000000370060C2BF00624060000004E000E2
:10101000FCFF3A0060C2BF00614060000004E000D5
:10102000F8FF320040138000304798000080200015
:10103000104078000080FB0040138800000037005B
:1010400060C2BF00624060000004E000FCFF3A00A4
:1010500060C2BF00614060000004E000F8FF3200A1
:1010600040138000304798004E4090000080FB0005
:10107000401388000000370060C2BF00624060007B
:101080000004E000FCFF3A0060C2BF006140600065
:101090000004E000F8FF3200401380003047980061
:1010A000004080001140800061004000E080480066
:1010B0000040880011408800C5C2A80097010700C1
:1010C00061E2A9009E017800131388002E40900071
:1010D00061406000C700DD0061C2BF000074A10074
:1010E0000140700061E2B7000080FA0000000600D5
:1010F0001400FA0040079800510798005E00900025
:101100000000E00016013200101380002007980054
:1011100061C2BF000080FB004700DE00604798000E
:1011200061E2A900B01320001013880061E2A8005A
:101130000040800011408000610160006000B80044
:101140000300200002007000838070000000E000B7
:101150000C0032005E0090000000E0000900320048
:101160004E0090001040780052FF07004E009000A3
:101170000000E800400798005E0090000000E900D1
:1011800050079800D0CAB300104798000000EB0049
:1011900010079800DC003700600107000040800065
:1011A00011408000F2FF20000300200000027800C0
:1011B000810278000200780083007800000162005C
:1011C000018062006102B80064079800750798000A
:1011D0006E009000FE009000C000DD0000002000C6
:1011E00060079800710798006E009000FE00900064
:1011F0006112B80064079800750798006E019000AE
:10120000FE0190000200700083807000E00F50002B
:10121000E08F580003003A00004080001140800039
:10122000D10007001E0090000000E0005D003A00C1
:1012300060C0B3002601070004C8BF006240600020
:101240000004E00003003200F0CAB3001047980029
:101250001300370004C8BF00644060000004E000D1
:101260000F003200070037004E00900090407800D9
:101270004E0090000000E800400798000140780010
:101280000CFF07005E0090000000E9005007980086
:101290005E009000E10F4000F3FF3A00B00037001D
:1012A000C5C2A9001E4090000080FB0040138800CA
:1012B0000000370060C2BF00624060000004E00030
:1012C000FCFF3A0060C2BF00614060000004E00023
:1012D000F8FF320040138000704798000080200023
:1012E0000080E800104078000080FB004013880078
:1012F0000000370060C2BF00624060000004E000F0
:10130000FCFF3A0060C2BF00614060000004E000E2
:10131000F8FF3200401380007047980000802000E2
:101320000000E800104078000080FB0040138800B7
:101330000000370060C2BF00624060000004E000AF
:10134000FCFF3A0060C2BF00614060000004E000A2
:10135000F8FF3200401380007047980000802000A2
:10136000104078000080FB00401388000000370028
:1013700060C2BF00624060000004E000FCFF3A0071
:1013800060C2BF00614060000004E000F8FF32006E
:10139000401380007047980010002000100798004C
:1013A0000F003700C5C2A9001E4090000080FB005E
:1013B000401388000000370060C2BF006240600038
:1013C0000004E000FCFF3A0060C2BF006140600022
:1013D0000004E000F8FF32004013800070479800DE
:1013E0000040EB00004F78001C0037004E009000DA
:1013F000104078000080FB00401388004E009000F1
:101400000000E80040079800004080001140800084
:1014100061004000E08048000040880011408800E2
:101420005E0090000000E9005007980000003700BF
:1014300060C2BF00624060000004E000FCFF3A00B0
:1014400060C2BF00614060000004E000F8FF3200AD
:1014500040138000704798001E4FE8009E80FB00FC
:1014600004C8BF00614060000080FB00808F500016
:10147000DEFF3400C5C2A80000408000114080009B
:10148000F2FF2000030020000002780081027800B3
:101490000200780083007800000162000180620091
:1014A0006102B800040F9800150F98000E08900014
:1014B0009E089000C000DD0000002000000F980092
:1014C000110F98000E0890009E0890006112B8005D
:1014D000040F9800150F98000E0990009E099000C7
:1014E0000200700083807000E00F5000E08F580011
:1014F00005003A008900070040C0B30074000700EF
:101500000000EB00100798005E009000E10F500013
:1015100021FF3E008100070040C0B3006C000700BF
:101520005E0090000000E000030032004E009000DA
:10153000104078005FFE070061E2A900AE01900054
:10154000131388006E40900061406000C700DD000A
:1015500061C2BF000074A1000140700061E2B700E9
:101560000080FA00000006000800FA00200798003A
:101570003107980010138000000F780061C2BF008F
:101580000080FB004700DE002047980061E2A900D0
:10159000B01320001013880061E2A80060C0B300FF
:1015A0004B000700C5C2A9000002200040138800BC
:1015B0000000370060C2BF00624060000004E0002D
:1015C000FCFF3A0060C2BF00614060000004E00020
:1015D000F8FF320040138000304798006400470055
:1015E0000080E800104078000080FB004013880075
:1015F0000000370060C2BF00624060000004E000ED
:10160000FCFF3A0060C2BF00614060000004E000DF
:10161000F8FF320040138000304798006400470014
:101620000000E800104078000080FB0040138800B4
:101630000000370060C2BF00624060000004E000AC
:10164000FCFF3A0060C2BF00614060000004E0009F
:10165000F8FF3200401380003047980064004700D4
:10166000104078000080FB00401388000000370025
:1016700060C2BF00624060000004E000FCFF3A006E
:1016800060C2BF00614060000004E000F8FF32006B
:101690004013800030479800C5C2A8001F00070013
:1016A00061E2A9001E007800101388002E4090000F
:1016B00061406000C700DD0061C2BF000074A1008E
:1016C0000140700061E2B7000080FA0000000600EF
:1016D0000200FA00004F7800C5C2A9001E80FB007E
:1016E000401388000000370060C2BF006240600005
:1016F0000004E000FCFF3A0060C2BF0061406000EF
:101700000004E000F8FF320040138000004F780032
:10171000C5C2A8000080FA00000006000200FA001E
:10172000C5C2A90050002000401388000000370007
:1017300060C2BF00624060000004E000FCFF3A00AD
:1017400060C2BF00614060000004E000F8FF3200AA
:1017500040138000004F78000000EB004013880029
:101760000000370060C2BF00624060000004E0007B
:10177000FCFF3A0060C2BF00614060000004E0006E
:10178000F8FF320040138000004F78001E407800C0
:101790000080FB00610060000004E000EEFF3A0002
:1017A000C5C2A8000080FA0000000600DE01FA00B1
:1017B00069004700015428001500090031587800DD
:1017C0006001B1007F00470042492800AB000900DA
:1017D00032587800C00AB100120107006201070008
:1017E0000000E00003003A000000EB0060AF990049
:1017F00009013700401D20000E004000470107008E
:10180000100020003007980043003700010D200031
:101810008E8040003E009000BB010700000D2000BC
:101820000E004000100078004600DE0020079800FF
:10183000000D20000E004000100078004300DE0084
:10184000E7006000100020000100DD00004F98005C
:10185000AE00900069004700E14078000E4890001B
:1018600000C060000004E00008003A002E01900073
:10187000AE00900069004700E14078000E489000FB
:1018800080C070006900470001717800000D2000E1
:101890000E004000100078004300DE002007980092
:1018A000000D20000E00400010007800E7006000EE
:1018B000100020000100DD00004F9800AE009000F5
:1018C0007F004700E14078000E48900000C06000B3
:1018D0000004E0000C003A002E019000AE009000E1
:1018E0007F004700E14078000E48900080C0700003
:1018F0007F004700017178003E0090000000E80082
:101900003007980004003700F502A8008000EB00C3
:1019100061AF9900C00037002EA891008000E80058
:101920003E009000808F5000B8FF3C006000B8007F
:10193000008FBE003C0037001E00BE004D09DD00D8
:101940004300DE0000007100C308DE00200798009D
:101950001E007800E7006000100020000100DD009C
:10196000004F9800AE00900069004700E140780009
:101970000E48900000C060000004E0002600320025
:101980001E00BE004B09DD00C500DE0081007100B5
:101990004B00DD0060A7980071A798006EA1900031
:1019A000FEA190000040EB0030DF9B00F03F2100E3
:1019B00001002000800F5100818F590002003E007D
:1019C00011C0B30031DF9B006EA19000FEA190001A
:1019D0000040EB0020DF9B00F03F200001002000D2
:1019E000800F5100818F59000200360011C0B300F2
:1019F00021DF9B003ED99300AED8930001406100E7
:101A00000004E00004003200F502A8000001EB0031
:101A100062AF990080003700100020000100200014
:101A20001E0F40005E974800A00A20000100200021
:101A3000BE0F1000AE8F1800BFFF36000000EB0095
:101A40001000BA00304088000000EB001080BA009F
:101A5000404088006000B800008FBE00480037009A
:101A60001E00BE004D09DD004300DE0000007100D5
:101A7000C308DE00200798001E007800E700600021
:101A8000100020000100DD00004F9800AE00900023
:101A900069004700E14078000E48900000C06000F7
:101AA0000004E0002A0032001E00BE004A09DD00EA
:101AB000C600DE00810071004A00DD0060A79800CA
:101AC00071A798006EA19000FEA190000040EB006D
:101AD00010DF9B00F03F210001002000800F51002B
:101AE000818F59000200360011C0B30011DF9B0046
:101AF0006EA19000FEA190000040EB0000DF9B0073
:101B0000F03F200001002000800F5100818F59001C
:101B100002003E0011C0B30001DF9B001ED99300FC
:101B20008ED89300014071000004E00005003200EF
:101B3000EEA090007EA09000220424001B0207006B
:101B4000030037006000B80060A7980071A79800F4
:101B50004006200001002000BE0F1000AE8F1800CC
:101B6000030036006000B80060A7980071A79800D5
:101B700010002000010020001E0F40005E9748006A
:101B8000A00A200001002000BE0F1000AE8F180038
:101B9000B3FF360010002000300798001700370010
:101BA000010D20008E8040003E009000D60007000E
:101BB000000D20000E00400010007800CF80DE00F5
:101BC0004709DD00C900DE00810071004700DD002B
:101BD00060A7980071A79800000D20000E0040003B
:101BE000630040006EA19000FEA19000F900070084
:101BF0003E0090000000E800300798002EA89100F9
:101C00008000E8003E009000808F5000E4FF3C0020
:101C10001000200060AF99006EA891000080FA00CB
:101C2000000006000000FA000AC8BF000004E0003F
:101C300003003A0010C0B3000AE8B7009BFB07009E
:101C40000080FA00000006000000FA0000002300F7
:101C50000100200044FE0700100020000080FA0070
:101C6000000006000C00FA00300798000000230076
:101C7000000F7800BE00900000C0EB00A04098006C
:101C8000000023000100200083FC07003E009000BC
:101C90004100200016FD07000E80E8001F0007002D
:101CA000CE4090003E009000204090000041EB00AC
:101CB000324F980080CF500002003A0010C0B300AD
:101CC000304F98001E009000BE00900091007800F8
:101CD0000041EB00224F9800810F500002003A00B3
:101CE00010C0B300204F9800BE4890002E499000CD
:101CF00002C060000004E000030032001000200079
:101D000040079800020037008000EB004107980070
:101D10004E0090000080FA00000006000200FA0069
:101D2000000F78001E01780043002000000023000F
:101D300001002000DFFB0700100020000080FA00F7
:101D4000000006000000FA0020002300010020002F
:101D500051FC0700A0CAB30056FC07001000200089
:101D60000080FA00000006000600FA000E0078006D
:101D7000EAFF0700AE409000A0CAB30080CF500039
:101D800003003A00100020002007980002003700EE
:101D90000000EB00200798002E0090000080FA0061
:101DA000000006001401FA0050079900610799002D
:101DB0000040EB0030579A00DE009100007D2000CB
:101DC000808F50000200340011C0B30031579A00D8
:101DD0000041EB0022579A005E0091000000E000F5
:101DE00002003C0010C0B30020579A00BE50920081
:101DF0002E51920002C070000004E0000300320087
:101E00000000EB00000F99003C0037005E009100DD
:101E10000000E9006103B90086007800401020004E
:101E2000000AB8006030B9000501780000014100E7
:101E30004010200000B8B900000141008202780083
:101E4000400023000100200004004000858048007D
:101E500011FC07006E00910041102000A4FC070057
:101E6000E60047005E00910027000700660047007B
:101E700020079800EE009100110798000000EB0089
:101E8000000F7800170037002E0090009040780077
:101E90001E009000104078000041EB00624F9A0055
:101EA00080CF50000200320010C0B300604F9A0093
:101EB0002E0090000000E800200798001E0090000F
:101EC0000000E80010079800EE4892000104E000CE
:101ED000030032000001EB00020F990007003700F9
:101EE0001E0FE8009E00780030102000808F500008
:101EF000E5FF36005E009100000F99000E0891008A
:101F00000080FA00000006000800FA00881F780030
:101F1000000F7800110798000040EB007047980010
:101F2000007D20009E0F10000200340011C0B3009D
:101F3000714798000041EB00624798001E00E000E6
:101F400002003C0010C0B30060479800FE409000C3
:101F50006E41900002C070000004E00003003200F7
:101F60000000EB0020079800160037001E049000C8
:101F70001E00E9006103B9008600780040102000CF
:101F8000000AB8006030B900050178000001410086
:101F90004010200000B8B900000141008202780022
:101FA000400023000100200004004000858048001C
:101FB00043102000080178003EFB07009E007800D7
:101FC000210798002E0090004F0478000080FA004E
:101FD000000006001600FA00000F9800120F98008B
:101FE000230F98000000EB00100798000000EB00A2
:101FF000000F78005A0037001E007800800078003B
:102000000E08900000804000104078004047980083
:102010009E0078000E089000008040000000E8005C
:1020200010407800504798009E0078000E089000FD
:10203000008040000080E800104078006047980071
:102040009E0078000E089000008040006300400071
:1020500010407800704798001E007800640F400020
:102060001E089000AE089000E00F5000E08F58006E
:1020700004003A0030408000414080002007980072
:10208000310798002E0090003E0190009E089000BD
:102090002E0A90008001780004007800B500070047
:1020A0001E089000AE0890007F0160006000B8003C
:1020B0000300200002007000838070008201200075
:1020C00003002000820F5000838F580008003A0060
:1020D0001E089000AE089000400798005107980035
:1020E0002E009000BE0090006007980071079800D5
:1020F0001E0090000000E000100032001E00900062
:102100000000E80080007800F003200000806000FC
:102110000000E00009003A006E0090007E0190008F
:10212000CE0090005E0290008001780004007800EC
:102130009000070010002400830007001E08900094
:10214000AE08900062004000E0804800100F980048
:10215000210F98001E0090000000E8001007980072
:102160009E009000F0032000808F5000A2FF3400FA
:102170000080FA00000006000800FA0011000700C5
:10218000A8FE0700F4E2A800F502A800F6FE07008A
:102190000000E0000900320084FD07000000E000BC
:1021A00003003200F4E2A800F502A90002003700A3
:1021B000F4E2A900F502A800A3FE070078000700DA
:1021C000FFFF37000000FA00F102A900F0E2A900C9
:1021D000C5C2A800C1C2A900113A8000F00B2000BE
:1021E000008160006104200070052000237420003D
:1021F000814978008049780082497800B16D2000DB
:102200009140780000CCB30000C060000034A00012
:10221000DBE6B700516D20009140780000CCB300A0
:1022200000C060007040B300D5E6B700816A2000AE
:102230009140780000CCB30000C0600081C2B300C0
:1022400001407000A8E6B7001168200091407800B6
:1022500000CCB30000C0600061C2B3000140700058
:1022600081E6B700916C20009140780000CCB3006B
:1022700000C06000A040B300C9E6B700E16C2000D8
:102280009140780000CCB30000C06000B040B300C3
:10229000CEE6B700C16A20009140780000CCB300C0
:1022A00000C0600031C2B30001407000ACE6B7006E
:1022B000A16D20009140780000CCB30000C0600008
:1022C0002041B300DAE6B700316D2000914078007C
:1022D00000CCB30000C060003041B300D3E6B700CB
:1022E000F16D20009140780000CCB30000C0600088
:1022F0006041B300DFE6B700516C200091407800E8
:1023000000CCB30000C060004041B300C5E6B70098
:10231000113A800000042000008170006104200058
:1023200070052000237420008149780080497800DE
:10233000824978000080FA000000060090018800C1
:102340008100780000000600003B88005005200056
:10235000303B8800A00A2000303B880061E7A800DD
:10236000000000000000000061E7AF00FEFF370042
:1023700000000600900188008308BB008288BB0033
:1023800000000600900188001100BA009180BA0098
:1023900000000600020C040000000000000006001F
:1023A0000014040000000000000006003200F800E5
:1023B000023B8800900188008108BB005005200086
:1023C000303B8800A00A2000303B880061E7A8006D
:1023D000000000000000000061E7AF00FEFF3700D2
:1023E0003200F900000006000A08000002000000A8
:1023F00002000000000000000608000004000000C9
:1024000000000000000800000600000000000000BE
:1024100000000000FFFFFF00FFFFFF00FFFFFF00C5
:10242000FFFFFF00FFFFFF00FFFFFF00FFFFFF00B8
:10243000FFFFFF00FFFFFF00FFFFFF00FFFFFF00A8
:10244000FFFFFF00FFFFFF00FFFFFF00FFFFFF0098
:10245000FFFFFF00FFFFFF00FFFFFF00FFFFFF0088
:102800000414040000000000AF9423000E7F240095
:102810000E01880000000000000120002002880056
:102820000C00070060DD26001100200011000700E9
:10283000000020000000E000020032000000020062
:102840000000000098560200010000000040DA007D
:102850000000FE004440A900C09B25000000E000ED
:102860000300320040002000A00188004440A8007E
:102870000000060091018800800078000000EB0055
:1028800015003700E280400032A0B4009101BA0088
:10289000E280400032A0B4009102BA00E280400021
:1028A00032A0B4000002EB00472BDE00F507B200B7
:1028B000602CE10004003A000059EB008301E900BC
:1028C000FDFF3E00040037006128E10001003200F6
:1028D0000082EB00040007001101BA000200E000D2
:1028E000E8FF3A00000006003159BA008301E90010
:1028F0000C0032002159BA008301E90008003200BF
:102900000400E00003003A00E280400032A0B4007E
:10291000F5FF370011D9BA008301E900FAFF3A0048
:102920008100E800E180400032A0B4000000060011
:102930001004B100070035009001B100040034001C
:102940007000B100030035009001B10001003C00AF
:1029500010000500000005006900E10004003500DA
:102960006D00E100030034000002B10001003200FC
:1029700000000500100005001004B1000300350040
:102980009001B10001003C001000050000000500AE
:102990000003B1000B0035009000B10008003400C6
:1029A0008000B100070035005000B1000400340081
:1029B000B001B100030035005000B10001003C003F
:1029C0001000050000000500800078001104B1002F
:1029D000030035009101B10001003C000050A0004F
:1029E00000000600800078001106B10003003500E9
:1029F0009101B10001003C000050A1000000060060
:102A00000000FA001511800004102000048262000A
:102A100004F0A7000402EA000402E9004F22DE00ED
:102A200004427800044078000080FA0000000600AC
:102A30000000FA009511800004102000048262005A
:102A400004F0A7000402EA000402E9004F22DE00BD
:102A500004427800044078000080FA00000006007C
:102A60000000FA0021E2A9009560A9009580A90064
:102A70008560A9008580A9000080FA00000006009A
:102A80000000FA0031E2A90097C0A90097E0A90070
:102A900087C0A90087E0A9000080FA0000000600B6
:102AA0000000FA0094118000044278006142620044
:102AB000044078000080FA00000006000800FA00D8
:102AC0001007980021079800320798003E029000F6
:102AD000441188001E029000041188002E0290000C
:102AE000141188000200370034118000044F780070
:102AF0001411800061026200E00F5200FAFF3A00F8
:102B00008560A9000080FA00000006000800FA00B5
:102B10001007980021079800320798003E029000A5
:102B2000C41188001E029000841188002E029000BB
:102B30009411880002003700B4118000044F78001F
:102B40009411800061026200E00F5200FAFF3A0027
:102B500087C0A9000080FA00000006000000FA000B
:102B60000411800066026200E60F520002003A0083
:102B7000341180000300370035118000F40F20006D
:102B800004826200040078000080FA000000060061
:102B90000000FA008411800066026200E60F520015
:102BA00002003A00B411800003003700B511800024
:102BB000F40F200004826200040078000080FA0014
:102BC000000006000200FA00000F780004118000E7
:102BD00066026200E60F520003003A001E0278000F
:102BE0002411880003003700F40F20001E02620049
:102BF000241188000080FA00000006000200FA009C
:102C0000000F78008411800066026200E60F520017
:102C100003003A001E027800A41188000300370068
:102C2000F40F20001E026200A41188000080FA0048
:102C30000000060003F0A200889FBE008A9FBE002D
:102C40008C1F7800380107003F0133006450E10019
:102C50004F0032006420E1005200320003826C0019
:102C600007003B000905D0000306D000820F540086
:102C70000C065D0002003900020032008901780074
:102C8000030678008582550004003D000003FD0026
:102C90008103FD008502EA008B854200840F7200EB
:102CA00002003B0060001000E08018006011B800D6
:102CB0000005EB007A28E1000A00390006007800E0
:102CC000C75DDD00F707B200878075002D00370073
:102CD000828171000A017800610560008180D10065
:102CE0000080D3008502E900F9FF3B0006044000A4
:102CF0008784480002003B0060041400E0841C004C
:102D00000988A300070032008A8171008281710066
:102D1000610164008904D1000884D3008B05E800B8
:102D2000170037000978A30013003A000B00E000F9
:102D3000130034008B05E9000804440089844C002A
:102D40000A4474000978A3000D003A000B00E0006B
:102D5000070034008B05E9000804440089844C0016
:102D600001003A000B0020000978A300F7FF3200B1
:102D70000001EB0002003700828171000A01780037
:102D8000AE0007000CF0A70001F0A000F70037002C
:102D90006420E10002003A00838F6C00F7003300EA
:102DA0000801BE000200BE00F0003700889FBE0090
:102DB0008A9FBE008C1F7800DB000700E200330012
:102DC00003866C006450E1002E0032006420E100B4
:102DD000330032006150E1002F0032006120E10039
:102DE0003100320085855500EB07B0000900200056
:102DF00008042000050037000804440089844C00C2
:102E00000A0031000603430087834B000001530092
:102E100081815B00F8FF33000203BE000800A000C0
:102E20000804440089844C00F6FF3900C639DD00EF
:102E30008301730001003200130020008904D100D7
:102E40000884D3000998A300050032000800A700F9
:102E50000300A0008904D1000884D3008B05E8009A
:102E60008904D1000884D3000001EB000281D20064
:102E70007200070001F0A1000CF0A70001F0A00013
:102E8000BA0037006420E100BC0032000801BE0037
:102E90000200BE00F7FF37006120E100B7003200FA
:102EA0006000B800F3FF37000000200001F82700A1
:102EB000F0FF3700839F68000100E00002003D0042
:102EC00060001000E08018000300E00002003D00F8
:102ED00060011100E0811900DF0007004F00E000F1
:102EE00002003B0060001000E080180000000600B7
:102EF000140020004C023700F4FF2F004A02370074
:102F00000001BE00730007000470A70003F0A100D9
:102F10006509B100160032000D0035006828E10097
:102F200006003500F0FF2F00F1FF27000300E0004E
:102F300013003B00010028000000050000004000D5
:102F4000818048008502E900FCFF3A000800370054
:102F5000F88F420002003C008000EB0000000500FA
:102F60008100D1000080D3008502E800FCFF3A0018
:102F70000300E00002003B0060001000E080180049
:102F8000000006000003BE00520007006011B800F8
:102F90000470A70007F0A10007F8A30017003A008B
:102FA0006509B1000D0032000D00350086022000D9
:102FB0000628E10003003500030028006000B80087
:102FC0000200050000004000818048000201490025
:102FD000838149008502E900FAFF3A0000000600FB
:102FE000F88F4200050034008100D1000080D3003A
:102FF0008502E800FCFF3A00000006006011B800FE
:103000008000EB00000005004F89DE00820178009F
:10301000200237006011B8002E0237000001EB00DB
:10302000DA010700040032000200200003F8230048
:1030300001F0A700FFFE070000000600810020004D
:10304000618055000B003D000B00200061FE2F0049
:103050000100E1001D003400828171006101640003
:103060008904D1000884D3000000E800FAFF3A0088
:103070007100200061006400030070000200600025
:103080000900320061044400E0844C000988A50076
:10309000050032008B05E8006808E10002003A00F4
:1030A0008904D1000884D300F20F20000258E10007
:1030B00005003D00C75DDD00F907B200898075009D
:1030C00008007800000006000BF827008B0078004D
:1030D00000000500C70ADE00F107B200F50FB200DC
:1030E00008003200E1CF4200020032000170A0006F
:1030F00024000500810F7000010032000408050063
:1031000044000500810F700002003A001400050021
:103110008502E9000000400081C04800FCFF3B0040
:103120000170A000240005000004BE00E9FF0700B4
:103130000003BE000405BE000200BE00E5FF07005C
:10314000844F7500000006000200BE006450E100DC
:10315000050036006420E100020036000968A30083
:1031600001003A000800BE000160A0004F06780090
:103170004F05BE004F04BE0000000600F0FF2F0008
:10318000F1FF2700F9FF3700889FBE008A9FBE002D
:103190008C1F7800E4FF0700EBFF330003866C0010
:1031A0006450E100240032006420E1002700320076
:1031B0006150E100220032006120E1002100320074
:1031C0008B854200EB07B1000134B800003AB8002B
:1031D0000804420089844A00013AB8000030B8006F
:1031E0008880400009014A000400330000004000CC
:1031F00081804800020149008B05E900C909DD0012
:10320000830170000100320013002000C814DE00AA
:103210004814DD004709DE001200B200C808DE00D5
:103220000884700085FF070001F0A1000CF0A700E2
:1032300001F0A000CDFF37006120E100CFFF320098
:103240000801BE000200BE00F7FF37006150E10038
:10325000FCFF3A00C9FF37006022B80006022000D8
:103260000000D0008180D2000482D2008582D2008A
:103270000000A0000202520083825A0003003100C5
:103280000202420083824A000000A1000603E90016
:10329000F3FF3A0000000600889FBE008A9FBE0030
:1032A0003004BE002005BE000404440085844C00A8
:1032B00006054D0087854D000898BE000A90BE00A7
:1032C0000440E10005C8E10006D0E10007D8E100B4
:1032D00002003100680040001008E8004F05BE0001
:1032E0004F04BE00000006001000FA00889FBE00D8
:1032F0008A9FBE000605BE000404BE003002BE0068
:103300002003BE00C4B79F00D5B79F00E6B79F005B
:10331000F7B79F000802520089825A000A035B0037
:103320008B835B0084BF9F0095BF9F00A6BF9F005B
:10333000B7BF9F000498BE000698BE001100200091
:103340004FB29700DFB297006FB39700FFB39700BB
:103350000820E10009A8E1000AB0E1000BB8E10093
:10336000010039008000EB00108810004F05BE00FE
:103370004F04BE000080FA00000006001400FA00AE
:10338000889FBE008A9FBE008C9FBE003F00070042
:103390000605BE000404BE000006EB00CCB79F008B
:1033A000BCB79F00ACB79F009CB79F008CB79F0035
:1033B0000D0420004FB39700BFB29700860343006F
:1033C0002FB29700E00F530004003D003D000700BE
:1033D0000F004000B0FF070003003700390007006E
:1033E0000F004000C0FF0700CFB2970095BF9F00BD
:1033F000E08F5200090035002B0007001400200068
:10340000050020006033B800000072008180720067
:1034100002017300838173001C0007000C06E800A2
:103420008D0F5600E3FF3A001FBA9700E00F5200DD
:1034300005003D000802BE000A03BE0000FE2F008A
:103440000F00400094FF07004FAA9700E00F5200C2
:1034500008003A000FB497009FB497002FB597006B
:10346000BFB59700D8B79F00E9B79F00FAB79F0094
:103470008BBF9F000C0007004F06BE004F05BE002B
:103480004F04BE000080FA000000060001000700A3
:103490000000060090B79F00A1B79F00B2B79F0041
:1034A000C3B79F00000006000100070000000600EF
:1034B0001FB09700AFB097003FB19700CFB1970012
:1034C000000006004F2BDE0087037300A7B79F00A4
:1034D0004F23DE00858242008502730095B79F006E
:1034E000FFAA97004F2BDE00040242000402730083
:1034F00084B79F006FAA97004F23DE0085824200A9
:1035000085027300F5AF9F00E9FF07004F18DE004A
:103510000402420000027200E4AF9F00E4FF0700D3
:103520000000400081804800020149008381490079
:10353000D8FF07000802BE000A03BE0000FE2F00ED
:1035400000000600881F780018002000881F7800FF
:103550008AFF07008F87E9004F047800000006000B
:10356000801FEB0085FF07008F87E9000000060041
:10357000889FBE008A9FBE00E00F5000E08F580079
:10358000E00F5900E08F59000C003D006044B80086
:103590006055B8000000540081805C0002015D00AD
:1035A00083815D00180020001500070008003D0021
:1035B000180007000004EB00050037000004EB00D2
:1035C0000F00070002003D00120007001800200055
:1035D000DCFF0700E00F5400060032006022B80054
:1035E0006033B8000000520081805A0002015B0085
:1035F00083815B004F05BE004F04BE000000060043
:10360000E00F5200E08F5A00E00F5B00E08F5B009C
:10361000000006006044B8006055B8000402540081
:1036200085825C0006035D0087835D000000060064
:10363000889FBE008A9FBE008C1F7800E00F50005C
:10364000E08F5800E00F5900E08F59000D003D0059
:103650006044B8006055B8000000540081805C00F0
:1036600002015D0083815D001C0020000820E10054
:1036700009A8E1000AB0E1000BB8E1000D003D002F
:10368000080037000006EB00E00F5200E08F5A0000
:10369000E00F5B00E08F5B0006003D006044B80077
:1036A0006055B8000402540085825C0006035D008A
:1036B00087835D00AAFF0700E00F56000600320076
:1036C0006022B8006033B8000000520081805A00C8
:1036D00002015B0083815B004F0678004F05BE004E
:1036E0004F04BE0000000600889FBE008A9FBE00F7
:1036F0008C1F78000006EB00E00F5000E08F5800B0
:10370000E00F5900E08F590007003D006044B80009
:103710006055B8000000540081805C0002015D002B
:1037200083815D001C002000E00F5200E08F5A00F2
:10373000E00F5B00E08F5B0007003D006044B800D5
:103740006055B8000402540085825C0006035D00E9
:1037500087835D000C00A2008D000700E00F56007B
:10376000060032006022B8006033B800000052004A
:1037700081805A0002015B0083815B004F06780064
:103780004F05BE004F04BE0000000600889FBE002B
:103790008A9FBE000003BE004EFE0700850578002C
:1037A00082815200020020006220E10004003A0001
:1037B000F307B100040035007718E100040035007C
:1037C0000600BE00140037006000B8000F0037008C
:1037D000F50F2000FAFF2F008502D1000A85D300E3
:1037E0008301E900FCFF3B00818462000004650066
:1037F000890F7400F2FF32008582EA000A85EA0030
:1038000081846200000465000CFE070007F0A70039
:1038100001F0A0000081EB000200E0004F05BE00B7
:103820004F04BE0000000600889FBE008A9FBE00B5
:10383000841F78003CFE07004F0078001100330021
:10384000F0FF2F00838F6C0006003B00040565002D
:103850000A00A7000800370009F0A60010002000A9
:1038600008003700820F5400838F5C00030039008A
:103870001000200001003E000000200009F0A70019
:103880000000EA004F05BE004F04BE000000E0004B
:1038900000000600881F7800030478000300E000A1
:1038A00007003D0060001000E08018006001190072
:1038B000E081190002003B0001F02D0003003700F9
:1038C0000400070008F0A70001F0A0004F047800F2
:1038D00000000600889FBE008A9FBE000082700024
:1038E0000402710004827100260032000004BE0050
:1038F0000200BE006011B8006B0920009502200094
:103900000182CF000A0039000541B1000082CF00DA
:10391000070039000541B1000982CF0004003900D9
:103920000541B1000882CF00010039000541B10016
:1039300005425200120032000A003B0082817100F1
:10394000610164008100D1000080D3008984D3002C
:103950000884D3008B05E8000442E800F7FF3A0032
:10396000070037000804440089844C000000480028
:10397000818048008B05E9000442E900F9FF3A0024
:10398000AEFD07004F05BE004F04BE00000006005C
:10399000889FBE008A9FBE008C9FBE000404B800B2
:1039A0000506B8008904460060854E000606B8008A
:1039B0000A054600E0854E000706B8008B05460064
:1039C000040EB800890446000A854E00E0854D00CB
:1039D000050EB8000A0546008B854E00060EB8009D
:1039E0008B0546000416B8000A0546008B854E007C
:1039F0000516B8008B054600041EB8008B0546006E
:103A00000800BE000A01BE004F06BE004F05BE0002
:103A10004F04BE0000000600EA874700889FBE00F2
:103A20008A9FBE008C9FBE008E1F780081057800A3
:103A3000E08F550001003200800D7800000578000D
:103A40008A047800090578003A06FB000C0078002B
:103A5000C1FB0700E00F5000F9FF3A00D40220003C
:103A6000840F560003003A008A04780018C0B3009F
:103A70000500370000447800B4022000840F56008F
:103A800001003A008A0478006000B8008006EB006C
:103A90000D0578000ECDB300E4C2B300010037007D
:103AA0008904E800890278007003640004003A0089
:103AB000994F120002003A000844A000F8FF3700B6
:103AC000194678000C03FB000603B100E90F530010
:103AD00017003E000814A0008802FB00E98F560082
:103AE0000F003200F0826200010032000A05E90096
:103AF0008D06E800A200200003002000E4B79F002C
:103B0000BD1A07000E4346000683FB000700200095
:103B10000000430081804B006FB29700E0FF370048
:103B2000F0826200DEFF3A000A05E800DCFF3700A1
:103B300054C6B300844F5600040032008006EB00E8
:103B400054C4B300844F56002E003A005942780006
:103B5000D5C2B300854F520002003A000834A000DD
:103B600003003700B5C2B300854F520001003A0090
:103B70008904E80007C3B30089027800850478004F
:103B80003943780004C3B300874F5300FAFF320073
:103B90008603FB000703B1008006EB00E98F5300AA
:103BA00015003E00844653008D86FB008902780094
:103BB000154378008603FB000703B100E98F53002B
:103BC0000D003E006A69B900844653008D86FB00F3
:103BD00082864600554378008603FB000703B10048
:103BE000E98F530004003E006A69B900844653001F
:103BF0008D86FB0082864600680264000100320068
:103C00008D06EA00E08F5500030032006202640076
:103C100001003200850D7800FBFC07000002BE00A9
:103C20000003BE006011B800E4B79F00D5B79F0045
:103C3000F4B79F0087BF9F00ADFC0700000178002C
:103C40006000B8006FB29700DFB297007FB39700B3
:103C50008FBB9700E00F5100600032000A854600DC
:103C600032F82F00820F550003003D00240220008F
:103C7000D4AA89005900370000082000800F5500A1
:103C80000700340024022000D4AA890061046400E3
:103C90004D0032000000200001F82F004F003700D7
:103CA000E00F55001F003D000A05EA00060037003E
:103CB000922F2000530125000400BE003BFC0700AA
:103CC0000002BE006A055500E90F5500F8FF3C00F0
:103CD0000600370002002000031224000400BE008A
:103CE00032FC07000002BE000A05E900E00F5500A3
:103CF000F8FF3A000403BE00020020000308200081
:103D00000400BE00F4B79F0087BF9F0078FC070047
:103D10007FB397008FBB9700E00F500025003D0058
:103D20001F003700E00F550007003A002100370060
:103D3000922F2000530125000400BE0012FD070051
:103D40000002BE006A055500E94F5500F8FF3E002D
:103D50000600370002002000031224000400BE0009
:103D600009FD07000002BE000A05E900E00F55004A
:103D7000F8FF3A000403BE00F2FF2F00F3F727001C
:103D80000400BE00F4B79F0087BF9F005AFC0700E5
:103D90007FB397008FBB9700E00F50000500340001
:103DA000610464000B0032000000200001082800BC
:103DB0000A003700610464000100320007F0A2002D
:103DC0000600BE00050037000000200001F82700B3
:103DD0000200370000002000010820004F07780093
:103DE0004F06BE004F05BE004F04BE00AF00B1003D
:103DF000000006008000EB0007FF370006C2B3009A
:103E00000002780004007800B042780086CF5200AB
:103E1000FBFF3200E9CF5200F9FF3200D6C2B300F7
:103E200086CF520003003A000002780016C0B300AB
:103E3000050037000043EB00B7C2B30087CF520044
:103E400001003A00000278000000EB000200370099
:103E50006A00B90000804200B402FB000503B10013
:103E6000E98F5200FAFF3600E04F530001003200A4
:103E70000000EA0000000600889FBE008A9FBE0086
:103E800004C2B3003044780080047800844F5400AA
:103E9000FCFF3200E94F5400FAFF3200D4C2B300F5
:103EA000844F540003003A00394478001AC0B3002C
:103EB000050037000045EB00B4C2B300844F540046
:103EC00001003A00394478006000B8000BCDB3001F
:103ED00009003700A200200003002000C6190700D7
:103EE0000B4244000482FB00050020000400400057
:103EF00085804800394478000882FB000403B10043
:103F0000E90F5200F3FF3600E04F55000200320087
:103F100060001000E08018004F05BE004F04BE0096
:103F200000000600034878008100FB00A400200088
:103F3000801F7800110009008400D8000102780079
:103F4000800078004F00780005C3B3000560420090
:103F5000E0CF50000300320085C0400071F89F00A0
:103F60000000060072F89F000000060000027800C2
:103F7000E3026200D016200014003A00450620003B
:103F8000809FBE00110009000582D80081027800E0
:103F90004F00BE000000E800E08F52000B003A0026
:103FA000C412B00005192000809FBE001100090056
:103FB0000582D800010278004F00BE000000E90031
:103FC000E00F520001003A000000E8000000060087
:103FD000889FBE001004BE00C20320000300200022
:103FE0000800BE00D018070000968900C203200018
:103FF000030020000800BE00AEFB07000004BE0066
:10400000C203200003002000C71807001096890093
:10401000C2032000030020000800BE00A5FB07002B
:104020000004BE008201200003002000BE1807002B
:104030002096890082012000030020000800BE00B5
:104040009CFB0700E402400074002000809FBE003B
:10405000110009008402D800010278004F00BE0060
:10406000649689000004780069042000020037008B
:10407000000454008904E80009007800BBFF070031
:10408000800F5400FAFF3D0059968900624060009D
:10409000789689000002EB00664B2300040037008D
:1040A000050454000402E8000080FB000000D10079
:1040B000E6427A00854270008582FB00850F54003D
:1040C000F7FF3D0044968900642C2300080AE800AD
:1040D000660052004F04BE00000006000400FA0013
:1040E00044FC2F001595810004AAB900300342005A
:1040F000A0834A00E6BF9F00F7BF9F00648057007F
:10410000B3FF07000080FA0000000600889FBE0091
:104110008A9FBE0000047800680290006322B90004
:10412000652623004B2A2300E54D7A0004824200D5
:104130008B02E800D44A78008B82E8001442900099
:10414000844A780009C2B3000502E800094A7800F1
:10415000480290006322B900C5272300648345000C
:10416000654B7A0004824200E5824500D44A78001B
:10417000E682450014429000844A78000502E80077
:10418000094A7800B8009000894178000941780018
:104190006480420063FF0700A8009000A3C3B3003F
:1041A00002C3B3006D8045005EFF070098009000D9
:1041B000A3C3B30002C3B3007080450059FF0700DA
:1041C000980078008941780002C3B30073804500ED
:1041D00054FF0700D80090004A0620001100090093
:1041E0008A00D80080007800F3C040008041EB00D6
:1041F00009417800768045004AFF0700D80090000A
:10420000110009008A00D800A3C0B30002C3B300A4
:104210007880450043FF07000B0078004F05BE0083
:104220004F04BE0000000600ACFF0700B7FF3700D8
:10423000E68747008E1F7800D0BF9F006687570033
:10424000012F78000E0037005FBB97001640780002
:10425000EFBA9700154278000201E900844F500040
:10426000040032000080FB000482FB0004005000C8
:10427000060037000603E800D6BF9F00050FE800E0
:10428000E00F5100F0FF3A00020078004F0778007D
:104290006F00B10000000600000278000200370045
:1042A000315A78000201E900E00F5100FCFF3A00AA
:1042B000000006000100200030A8890041A8890004
:1042C00015C0B30044502300054A780000000600E2
:1042D000445023008042EB0094CF120002003A00C9
:1042E00010002000F3FF0700D2E62400631C240026
:1042F00030A8810041A88100BF1807009403230063
:10430000050020000002420081824A0034A8890092
:1043100045A889000500780000F0A1000000060013
:104320000C00FA00889FBE0000047800F4FF27000C
:10433000D4BF9F008004EB0099BF9F0088BF9F00FF
:10434000A8BF9F00240C2000B4BF9F0078815700B5
:10435000CFB0970070805700860A07000FBA970009
:10436000094A78000FBA9700080052004F04BE00B7
:104370000080FA00000006000002780004007800C7
:1043800000027800B442780081CF5200030032006E
:10439000E0CF5200F9FF3A000000EB0000000600F9
:1043A000B042780031C2520002003A00E0CF520021
:1043B000FBFF3A000400FB0000000600000278004A
:1043C000B1427800055A7800E0CF5200FCFF3A0075
:1043D00000000600000278008042EB00B4CF12001B
:1043E000FDFF3A000080EA000000420000000600E5
:1043F00080027800050278000043EB00B54F1300FF
:10440000FCFF3A00010037000201E900E00F510013
:1044100005003200B1427800055A7800E0CF520022
:10442000F9FF3A0000000600024A7800000006008A
:104430000B00370030427800E04F5200030032009A
:104440000201E900B14F5200050032000480FB0078
:10445000954278008582FB000500500000000600B0
:1044600081027800E00F5100F2FF3A00020078006C
:104470000000060000027800060037000201E90093
:1044800031437800065A780084027800E04F5300E8
:104490000600320084027800E00F5100F7FF3A0076
:1044A00002003700805AEB000201E900E00F5100E2
:1044B000FCFF3A0000000600889FBE000004BE001A
:1044C0000B00370009007800C2FF070000017800E8
:1044D0000800BE00D6FF0700E00F50000A003200BF
:1044E0000800E8009900FB00A3FF07000004780023
:1044F000E00F5400040032000042EB00984F12001D
:10450000F0FF3A000004EB00080078004F04BE0002
:1045100000000600889FBE000004BE00E00F5400AB
:1045200003003A00E8AA8100E00F540015003200B1
:104530000800BE00FA000700000444000042EB003F
:10454000984F120003003A000004EB00E8AA89002B
:104550000C0037000800BE00D9000700000044002E
:10456000E0AA89000042EB00904F120003003200E5
:104570000058EB00E0AA8900020037000002EB00BF
:10458000E4AA8900080078004F04BE00000006007D
:10459000EA874700889FBE008A9FBE008C9FBE00AE
:1045A0008E1F780001067800820478000002EB007C
:1045B000D4AA8900840F560001003200000E780052
:1045C00000057800BA4678000A0478000D00FB0068
:1045D000E1F80700E00F5000FAFF3A008D42780042
:1045E000D4C2B30084CF520003003A00B84278002E
:1045F0001EC0B3000500370000477800B4C2B30006
:1046000084CF520001003A00B842780004C3B300DE
:1046100084CF520012003A00B8427800E08F540074
:1046200002003200F08F540010003A0084C7B3003B
:1046300084CF52000300320084C5B30084CF5200FF
:1046400003003A00B8427800090120000700370053
:10465000E08F540005003A00890020000300370075
:10466000E08F540001003A00A90020008046EB00D2
:104670006055B800614BB900D6B79F00E7B79F00FF
:104680000503FB000600780085BF9F00F6B79F007A
:10469000A7F807008FBA97007FB39700E00F50008C
:1046A0000500320006007800CEF8070097CCB30072
:1046B00007424000050037000603B100E90F530030
:1046C00020003E0006CDB30006C242008402FB007B
:1046D000898F52001A003D000402FB00CFA2DE00C9
:1046E0005FB19700EFB197000A00BE00F4B79F00DA
:1046F00085BF9F00C01707007FB297008FBA970051
:1047000004034000858348000800E800860F550038
:10471000878F5D000500360024022000D4AA89009E
:104720000004780010C0B3000600370098427800FB
:10473000000478000605BE001DC0B300D0FF37009E
:104740000040EB00E00F560002003200E0CF5600C0
:1047500004003A009C02780004C3B300954F120095
:1047600001003A00080EE900E14F50000500320058
:10477000E04F57000500320060051500E0851D0080
:10478000020037000085EB008085EB000A00BE00C8
:104790004F0778004F06BE004F05BE004F04BE0015
:1047A000AF00B100000006000200FA00889FBE00C2
:1047B0008A9FBE008C1F7800800578000105780074
:1047C0000002EB00D4AA89000B0678008C04780064
:1047D000090678003C4478000800FB00A2BF9F0057
:1047E0005DF807002FB99700E00F5000F7FF3A007F
:1047F000D4C2B300844F54000300320004C2E90065
:10480000844F540002003A008904E8000100370098
:10481000044478008A007800090078005CFF0700F3
:104820009A8F540001003A000B0D78009A8F5500C2
:1048300003003A00E00F5000E08F58000F003A00EC
:10484000B4C2B300844F540004003A00E00F50009B
:10485000E08F580015003D0008003700D4C2B300B7
:10486000844F540011003A00040020000500280085
:10487000840F5000858F58000A0036002402200063
:10488000D4AA8900F0FF2F00F1FF27006B424200FD
:10489000844F540005003A00000020000100280069
:1048A0000200370060001000E08018004F0678001A
:1048B0004F05BE004F04BE000080FA000000060055
:1048C000889FBE008A9FBE008C1F7800010678007A
:1048D0000005EB006044B800800578000200370056
:1048E00061044400E0844C00EB407D00E0CF5000C8
:1048F000060032008100FB000C0078009EFE0700DD
:104900000A05E800E00F5000F5FF32000800BE0085
:104910004F0678004F05BE004F04BE0000000600A1
:10492000889FBE008A9FBE008C1F78000106780019
:104930000005EB006044B8008005780002003700F5
:1049400061044400E0844C00EB407D00E0CF500067
:10495000060032008100FB000C00780086FE070094
:104960000A05E800E00F5000F5FF3A000800BE001D
:104970004F0678004F05BE004F04BE000000060041
:104980000C00FA00A0BF9F00C0BF9F0091FE07006F
:10499000B0BF9F00F0BF9F00140C2000D4BF9F0049
:1049A00074815700EFB097006C8057003400070007
:1049B0000080FA0000000600881F7800F0AA81003D
:1049C000D31207000004780008007800E2F707001F
:1049D000E00F5000F9FF3A00E10F440003003200FD
:1049E000F1AA8100080078008E1307004F047800B8
:1049F00000000600889FBE008A1F7800000478002F
:104A0000814478000205780004FD2F00080242006E
:104A1000E90F520002003E00040478000F00370046
:104A200008007800D4F70700E00F500005003200BE
:104A3000E00F55000300320008007800E2F707009D
:104A40000004780008007800B9F7070000C2EB0006
:104A5000E00F5000060032007805B1008984FB00A9
:104A600000C2EB00890F540001003D0008427800AD
:104A7000044078004F0578004F04BE000000060097
:104A8000F0874700889FBE008A9FBE008C9FBE00B3
:104A90008E1F780081BF9F00F2B79F00F0AA8900A7
:104AA0000002EB00D4B79F00044478003D013700BA
:104AB0008FBA97008502E80085BF9F008985FB00BB
:104AC0000B007800A4F70700E00F5000020032004E
:104AD000B9FF07003301370054C2B30084CF54003C
:104AE00024013A008044780025C0B30000457800D6
:104AF0000FB897000546780080057800040037005D
:104B00004CC0B300010037002CC0B3000B0078008C
:104B10003B42780085C6B300854F5200FAFF320051
:104B200015003E00F0C25200854F52002E003200A8
:104B30000A003E00ECC25200854F520026003200AF
:104B40007B003E00E04F5200AB003200A5C2B30034
:104B5000854F520076003A001D00370035C6B3007D
:104B6000854F52005B0032008542E800854F5200BD
:104B70006F003A008200370035C7B300854F5200FE
:104B80001F00320007003E00E7C25200854F52006E
:104B900011003200E3C24200854F520064003A0027
:104BA0007B00370055C7B300854F520074003200B8
:104BB000E3C24200854F52005D003A009CEF9F0027
:104BC0008BBF9F000002EB00D4B79F000A003700A4
:104BD0000A45E800CDFF3700E24F5600C8FF32001B
:104BE0008CC0B300C9FF37009CEF9F008BBF9F00B4
:104BF00015002000D5B79F000EC1B3006700370035
:104C00008BBF9F006CFF0700E04F550004003A0087
:104C10007FB29700C4027800F4B79F00E5B79F0009
:104C2000F0AA81003A12070080057800E18F450064
:104C300014003A000B007800D70037008FBA9700B5
:104C40001502FB00848F550005003A000C02780025
:104C5000E4B79F008502E80085BF9F00170037007A
:104C6000E04F550001003A000B5E78008944E900EE
:104C70000D003200F0AA810025120700800578009F
:104C8000010037006FB697000B02E800E10F5200F9
:104C9000080036000B0078002FF70700E00F5000E7
:104CA000E6FF3200030037000C027800E4B79F00F3
:104CB000020037008C027800E5B79F00E04F5500F6
:104CC000B8003A000844E8006FB297000A4A78003A
:104CD000B40037008BBF9F00E04F550006003A003C
:104CE0000844E800FFB2970045027800F5B79F003E
:104CF0008405780001003700EFB59700F0AA810025
:104D000003120700E10F4000A3003200E04F5500FE
:104D100001003A00805D78008944E9004240A90022
:104D2000F6FF3C008B027800E5B79F009D0037003E
:104D30008484FB0004FD2F0009024200E90F5200A9
:104D400009003E002DFC0700804478000B0278002B
:104D500084057800B402FB000503B100E98F52001E
:104D6000FBFF360069FF37008BBF9F00F0AA810070
:104D7000E7110700808F540082003A008900370055
:104D80009CEF9F008BBF9F00AEC0B30003003700B5
:104D90009CEF9F008BBF9F008EC0B30006FF0700F3
:104DA000F0AA8100DA110700800578000042EB00CC
:104DB00084EF9F00D4022000848F550005003A0044
:104DC000F0AA8100D21107008005780015C0B30059
:104DD00085EF9F005FB197008E4078000B00780050
:104DE00004FF0700E14F40000B003A00F1AA8100E8
:104DF0000B0078008B120700E04F54006D003A0062
:104E0000F4AA810034009000700060006A00320053
:104E10000080EB006800370004032000848F5500F9
:104E200017003A00F0AA8100B91107008005780048
:104E300084072000848F550004003A005FB2970079
:104E4000E00F5200070032000A00370084052000FE
:104E5000848F550007003A00DFB29700E08F5200C0
:104E600004003200F0AA8100A91107008005780033
:104E700003003700F1AA81000B00780069120700D7
:104E80006066B8000E82FB0005002000A4B79F00FA
:104E9000B5B79F002FB19700BFB197000C00BE00BF
:104EA000D51507000006BE005FB197008E40780060
:104EB0000B007800CFFE07000080FB0001002000FF
:104EC0000006460081864E008944E9000900320050
:104ED000F0AA81008E110700800578005FB197006D
:104EE0008E4078000B007800C2FE0700E14F4000C2
:104EF000E8FF3A005FB197008E4078000B00780021
:104F0000BCFE0700E14F400003003A00F1AA810017
:104F10000B007800431207008FEA9700E0CF5200A1
:104F20000200320060061600E0861E00E04F5500C9
:104F30001C003A000844E800FFB297000582E9002F
:104F40009FEA9700E4CF520005003A00F4B79F00B3
:104F500084027800150278000C8ABE001100370028
:104F6000F4B79F0084027800150278000C0A7800DC
:104F70000C003700F0AA810065110700808F5500F2
:104F800008003200E10F400003003200F1AA810066
:104F90002412070007003700E04F540005003A00D4
:104FA000050037000FBA970094447800E0CF540012
:104FB000BFFE3A000880FB004F0778004F06BE0096
:104FC0004F05BE004F04BE000F01B10000000600F7
:104FD0000C00FA00889FBE0000047800F4FF270050
:104FE000D4BF9F008004EB0099BF9F0088BF9F0043
:104FF000A8BF9F00240C2000B4BF9F0078815700F9
:10500000CFB0970070805700B30007000FBA970029
:10501000094A78000FBA9700080052004F04BE00FA
:105020000080FA0000000600889FBE008A9FBE0034
:105030000084FB00D4C6B300844F50002200360029
:105040004B062000110009000B84D8008105780070
:10505000720040004300DD00098B22000080440004
:105060006022B8000600200007FE23005001BE00A9
:105070004000BE00BB140700AA002000809FBE00B5
:10508000110009008A85D800800578004F00BE0015
:10509000E9854500C35DDD008B8544003B02BE0011
:1050A0002B03BE00AF140700809FBE001100090053
:1050B0000A84D800010478004F00BE004344DD009C
:1050C0008884440013003700EA4F50001400360073
:1050D000AA002000110009000A84D800000478000A
:1050E00001057800690444004344DD00098B220077
:1050F000088444006022B8000600200007FE230058
:105100003800BE002801BE00961407004355DD009C
:105110008A8444003902BE002903BE00080037001B
:105120004344DD00048B2200080442006022B800E2
:105130000600200007FE23003800BE002801BE0044
:10514000881407004F05BE004F04BE000000060093
:10515000889FBE008A9FBE00D4C6B300E04F5000B7
:1051600029003D000040EA000004FB00844F50008D
:105170001000340044062000809FBE00110009008A
:105180000404D800010278004F00BE00A9002000EE
:10519000809FBE00110009000902D80000027800BB
:1051A0004F00BE00690242004322DD000A8B22004C
:1051B00023003700EA4F500010003400A400200004
:1051C000110009000404D8000104780069004000BF
:1051D0004300DD00048B2200000042004344DD0058
:1051E000080242005403BE004402BE005001BE004B
:1051F0004000BE005B140700340037004344DD006C
:10520000048B22002E0037000004FB00844F500066
:105210001D00340044062000110009000404D800D9
:1052200001027800A9002000110009000902D8003D
:1052300000027800690242004322DD000A80220059
:10524000040245005403BE004402BE008B09200046
:105250008A8545003B00BE002B01BE0041140700BB
:10526000809FBE00110009000904D80001047800E5
:105270004F00BE004344DD00080545003A02BE0071
:105280002A03BE00DBFF3700EA4F50000A0034005B
:10529000A4002000811F7800110009000404D80038
:1052A00001047800CF007800690040004300DD0071
:1052B00004802200C8FF37004344DD000480220040
:1052C000080442003800BE002801BE004F05BE00A1
:1052D0004F04BE0000000600EF05B000889FBE002E
:1052E0008A9FBE008C9FBE008E1F7800000678004B
:1052F000E19F9F0082AF9F000007EB00E5053700AC
:10530000EF9897008100E800E19F9F0054C2B3002E
:10531000844F500006003A00010378008006EB003D
:1053200007C3B30000C2B300B1C2B3000E00370020
:105330003C0290000404B200040032001C02780019
:10534000004A7800040EE800050037000000FB006A
:105350008C007800EF100700E10F4000CD0532000F
:105360000E07E800CB05370006027800B642780049
:10537000D2C2B30082CF52000900320005003C00C7
:1053800080CF52000800320081CF52000C003A005A
:105390000700370087CF520009003A0006003700A7
:1053A0000D30A000F0FF37000D00A000EEFF370029
:1053B0000D10A000ECFF37000D20A000EAFF370021
:1053C00062836600010032000D00A1006883660060
:1053D000010032000D20A1000503FB000603B1000F
:1053E000E90F53000D003E00840278000700200002
:1053F0006A3BB9003502FB000403B100860342009A
:10540000050278001503FB000603B100E90F530005
:10541000F7FF360097B79F000A0037000003EB0044
:1054200096B79F00A6C2B30086CF520005003A008F
:105430008FAB97004700780087AF9F0090B79F0021
:105440000402E800E5C2B30094CF120017003A004E
:105450000DE0A000E4C25200D4CF120003003200DD
:105460008402780007002000090037000FA9970088
:10547000C201780082AF9F00D3AF9F000402E80012
:10548000C6C6B3000D0037006A38B9008003430078
:10549000050278003503FB000603B100E90F530055
:1054A000F9FF3600D7AF9F00F5FF37000DC0A00011
:1054B0008002EB00D5AF9F00F1FF37008403780036
:1054C000B74278000702780086CF52002D003200E4
:1054D000E79F9F00C4C6B30084CF520014003C0075
:1054E0006842520084CF52002400320009003C0080
:1054F0006C42520084CF52002E0032006B424200B8
:1055000084CF520099003200E0CF5200660532008D
:10551000B600370064C6B30084CF52001F003200CB
:105520006342420084CF5200B0003A0013003700BB
:1055300034C7B30084CF52002200320007003C0081
:105540006442520084CF5200170032000442E80047
:1055500084CF5200A5003A001600370054C7B300AC
:1055600084CF5200A60032006342420084CF520032
:105570009E003A00E5579F0010003700E5579F0056
:10558000A1003700F0836600050120000100320011
:105590000500280085867600C8FF3700E5579F0084
:1055A0000DA0A00098003700E5579F000D60A000F7
:1055B00095003700E5579F000D50A0000D70A0002A
:1055C00091003700E5579F000FAB97004602780027
:1055D00086AF9F0004047800E00F520001003A00FB
:1055E000A8342300880278000002EB000100370095
:1055F0000402E80065437A00E04F5300FCFF3A00E4
:1056000084047800DFAB9700E08F53000300320082
:10561000898F530001003100870478000002EB00FD
:105620001FB09700890F500001003600090250009A
:10563000E8866600DDAF9F008D007800E08F5000A7
:105640002D003A008406780004C2B3001000370031
:10565000BC0290000504B200040032009C027800F5
:10566000844A7800050EE800070037008C007800B7
:105670000002200084BF9F00261007000FBA970089
:10568000E10F4000010032000E07E8008D06E9003E
:10569000E08F5600EEFF3A000082EB001600370064
:1056A000BC0290000504B200090032009C0378009F
:1056B0008802780035437800864B7800070EE800B2
:1056C00005047800E04F53000A003A000A00370052
:1056D000880278003500FB00050478008C00780013
:1056E00084BF9F000B1007000FBA9700E10F400026
:1056F000010032000E07E800890278008504E90005
:10570000E08F5200E6FF3A005FA99700E00F5100DA
:10571000E00432008406780004C2B30010003700B1
:10572000BC0290000504B200040032009C02780024
:10573000844A7800050EE800070037008C007800E6
:105740000002200084BF9F00F20F07000FBA9700ED
:10575000E10F4000010032000E07E8008D06E9006D
:10576000E08F5600EEFF3A00CA0437008FA9970079
:105770004302780083AF9F0004007800CF80DE00F2
:10578000010178008201780090AF9F00A1AF9F00D7
:10579000B2AF9F00C3AF9F004800DE00480ADD00A3
:1057A00000007200E0579F00F0826600090032009E
:1057B000E04F500007003200E14F4000050032008A
:1057C000F0579F00AFD29700855F9F00290020000F
:1057D000030037002FD39700F6579F0019002000D1
:1057E00078F92F000F04440086FF3700E5579F002B
:1057F00068F92F000F0444001900200081FF3700D2
:10580000E5579F000D0CB300047020000482660071
:105810006C023200040021000482660002003200A3
:1058200067002000D7AF9F00708266000900320039
:105830000FAA97004401BE004400BE0084AF9F0041
:1058400090AF9F00A1AF9F00B2AF9F00C3AF9F007A
:105850000A0037008FAA97004500BE0085AF9F0061
:105860000B1207000002BE000203BE0094AF9F00AF
:10587000A5AF9F00B6AF9F00C7AF9F006022B800E2
:105880006033B8001FA89700AFA897003FA9970002
:10589000CFA9970050110700E00F50000A003D000B
:1058A0001FA89700AFA897003FA99700CFA997001E
:1058B00003F0A20090AF9F00A1AF9F00B2AF9F0086
:1058C000C3AF9F003D00B3000002EB00D48F9F00E8
:1058D0006022B8006033B8001FA89700AFA89700F7
:1058E0003FA99700CFA997009F110700E00F500034
:1058F000390032001FA89700AFA897003FA9970072
:10590000CFA997000E130700A2F92F000F01410045
:10591000821207005F8B97000603E9006333B9002A
:10592000A500200000027800811F78001100090006
:105930000503D8000002FD00CF007800D48F9F003F
:10594000E00F520002003D000402E900D48F9F00E6
:105950005F8C97000840EA00FDFD07001FAA970032
:10596000AFAA97003FAB9700CFAB97007D1207001F
:105970000002BE000203BE0084A79F0095A79F00FF
:10598000A6A79F00B7A79F006022B80006002000CE
:1059900007FF230010110700E00F500002003D0038
:1059A0000804E9000B0037006022B8000600200060
:1059B000470224000FA097009FA097002FA19700F7
:1059C000BFA1970009110700E00F50000200350049
:1059D0000804E800D88F9F00DFAA9700F88F5200D4
:1059E0000F003C00054078008FFD07000002BE005C
:1059F0000203BE001FA89700AFA897003FA9970019
:105A0000CFA99700771007000002BE000203BE0076
:105A100094AF9F00A5AF9F00B6AF9F00C7AF9F0098
:105A20005F8C9700E90F540015003C006022B8001D
:105A30006033B8001FA89700AFA897003FA9970050
:105A4000CFA9970048110700E00F50003200320044
:105A50001FA89700AFA897003FA99700CFA997006C
:105A6000AA110700E00F5000E08F5800E00F590026
:105A7000E08F590028003A00E10F5400260034005E
:105A80000400200005002E00B6E0220017012400CB
:105A90000FA097009FA097002FA19700BFA197008C
:105AA000CD100700E00F500002003D0073045400C9
:105AB0000100370072045400D88F9F002F589700C0
:105AC000A3FD07000002BE000203BE0084A79F00E2
:105AD00095A79F00A6A79F00B7A79F001FA89700A4
:105AE000AFA897003FA99700CFA99700C41007005F
:105AF000861107000205BE000004BE006000B80069
:105B00006011B80090AF9F00A1AF9F00B2AF9F009F
:105B1000C3AF9F00170037001FA89700AFA89700DA
:105B20003FA99700CFA99700781107000205BE0092
:105B30000004BE00CC1107000002BE000203BE003C
:105B40001FA89700AFA897003FA99700CFA997007B
:105B5000791207000002BE000203BE0094AF9F004E
:105B6000A5AF9F00B6AF9F00C7AF9F000002EB003C
:105B7000D48F9F0041D2220010C0B300080037002C
:105B80003102BE003103BE000440E10005C8E1005F
:105B900006D0E10007D8E100030039000040E8002A
:105BA000F44F5000F6FF3A00E0579F005F8A9700DD
:105BB0009FB29700048252005FAB9700060252002A
:105BC0000000FB000000520090B79F00E00F530060
:105BD000020032000000E90090B79F006382660077
:105BE000030032009FB397008703E90097B79F0037
:105BF000648266004500320062826600E1826600CF
:105C0000E00F5200110032003C0290000404B20088
:105C1000080032001C037800B4C2B300E08F5200C9
:105C20000100320004C2E800044B7800060EE800D0
:105C300015003700B0022000E08F52000100320052
:105C40000080E8008C0078000C003700E08F5200E4
:105C5000200032003C0290000404B2000500320033
:105C60009C02780004C2B300844A7800050EE80064
:105C7000050037008C00780000022000A50E070008
:105C8000E10F4000130032000E07E800110037005A
:105C90003C0290000404B200040032001C027800B0
:105CA000054A7800040EE800070037008C007800F1
:105CB00000032000F5B79F00960E0700FFB2970083
:105CC000E10F4000010032000E07E8008904E900FE
:105CD0000600370005C3B300C8A79F00D9A79F00DF
:105CE000EAA79F00FBA79F009FB49700E08F540096
:105CF000E7FF3C0099B79F004FA49700DFA49700EF
:105D00006FA59700FFA597006F00370068826600B7
:105D10001F003A00110037003C0290000404B2005A
:105D2000040032001C027800054A7800040EE800E6
:105D3000070037008C00780000022000F5B79F00B4
:105D4000740E0700FFB29700E10F4000010032001F
:105D50000E07E8008904E9000600370005C2B30019
:105D6000C8A79F00D9A79F00EAA79F00FBA79F0095
:105D70009FB49700E08F5400E7FF3C0099B79F0065
:105D80004FA49700DFA497006FA59700FFA5970089
:105D900062826600E1826600E00F5200110032006C
:105DA0003C0290000404B200080032001C0378009A
:105DB000B4C2B300E08F52000100320004C2E80018
:105DC000044B7800060EE8003E003700B0022000C9
:105DD000E08F5200010032000080E8008C00780063
:105DE00035003700E08F5200370032003C0290004F
:105DF0000404B200050032009C02780004C2B30023
:105E0000844A7800050EE8002E0037008C007800E8
:105E100000022000280037003C0290000404B20079
:105E20008502FB00E00F5200130032009C00780056
:105E3000C1A79F00C32ADD00C2D122008502410014
:105E40005503BE004502BE000800BE000A01BE00A8
:105E5000BCF50700A4002000050020006033B80056
:105E6000BFF5070005C3B3004FA29700054A4000E5
:105E7000040EE80013003700C32ADD00C6D122005B
:105E8000850243005503BE004502BE000800BE0067
:105E90000A01BE00ABF50700A400200005002000A9
:105EA0006033B800AEF50700040320000002420092
:105EB0008C00780004007800160E0700E10F400007
:105EC000010032000E07E8006F5297008442E9009B
:105ED000E5579F00E04F5200CFFF3A001100370016
:105EE0003C0290000404B200040032001C0278005E
:105EF000084A7800040EE800050037008C0078009E
:105F000000032000030E0700E10F400001003200F3
:105F10000E07E8005F8A97000402E900D48F9F0013
:105F20000100370008C3B3005F8A9700E00F5200FA
:105F3000EBFF3C00DFAB9700F28F5300030034000F
:105F400024C1B300E4579F00020037002FD8970008
:105F5000E0579F006F5297008402FB00DFA8970074
:105F600085825000C5A79F00E04F52000E0032000E
:105F70003C0290000404B200050032001C027800CC
:105F8000E5C2B300054A7800040EE80005003700BA
:105F90008C007800E0022000DE0D0700E10F4000D9
:105FA000010032000E07E8006F50970068FC070000
:105FB0000002BE000203BE001FA89700AFA8970012
:105FC0003FA99700CFA99700E61007004F100700E0
:105FD000360037003C0290000404B2008502FB004A
:105FE000E00F5200130032001C017800D2AF9F0076
:105FF000C32ADD00C3D12200858241005503BE00C3
:106000004502BE000800BE000A01BE004DF50700B3
:10601000A4002000050020006033B80050F5070000
:1060200005C3B3005FAA9700054A4000040EE800CC
:1060300013003700C32ADD00C6D1220085024300C9
:106040005503BE004502BE000800BE000A01BE00A6
:106050003CF50700A4002000050020006033B800D4
:106060003FF5070004032000000242008C00780086
:1060700004007800A70D0700E10F40000100320086
:106080000E07E800EF5397000702FB004322DD00F4
:10609000C0D12200040240005403BE004402BE00EE
:1060A0000800BE000A01BE002DF507000205BE0073
:1060B0000004BE006F5297008442E900E5579F003C
:1060C000E04F5200C3FF3A0011003700BC029000BD
:1060D0000504B200040032009C027800844A780073
:1060E000050EE800070037008C0078000003200050
:1060F00084BF9F00870D07000FBA9700E10F400093
:10610000010032000E07E8008904E90006003700AC
:1061100004C3B300D0AF9F00E1AF9F00F2AF9F0078
:1061200083B79F00CFA49700E08F5400E7FF3A00A9
:106130005FAC9700EFAC97007FAD97008FB59700ED
:10614000E8866600530232009FB09700E08F50004F
:10615000500234000DC2B3000802BE000A03BE00A4
:10616000810478003C0090000004B200040032007A
:106170001C0078000D487800000EE8000D00370084
:106180008C0078000002200084BF9F00F5B79F00BC
:10619000D6B79F00E7B79F005E0D07000FBA9700C4
:1061A000FFB297005FB39700EFB39700E10F400095
:1061B000010032000E07E8008904E900E9FF3A0017
:1061C000340237008D027800050CB2002A003A0034
:1061D000E08F560005003D000FA997004205BE0064
:1061E0004204BE0082AF9F00160037007082660036
:1061F0000E0032000FAB97004602BE0086AF9F0034
:10620000C4979F00D5979F00160290004FA2DE0012
:10621000E4979F00F4979F004F949700DF949700B6
:106220006F959700FF959700060037000FA897001D
:106230004004780080AF9F00CFC4DE0009057800DD
:106240008A057800E00F5400E08F5C00E00F5D00ED
:10625000E08F5D0023003D003D00B3006022B800E8
:106260006033B8000804520089845A000A055B00B4
:106270008B855B001B003700E08F560005003D005A
:106280008FA897004105BE004104BE0081AF9F006A
:1062900014003700F08266000C0032008FAA9700CD
:1062A0004501BE0085AF9F0082979F0093979F0096
:1062B000A4979F00B4979F000F9497009F94970016
:1062C0002F959700BF959700060037008FAB97007A
:1062D0004704780087AF9F00090020000A002000D3
:1062E0000B0020005FA89700E00F500009003A0063
:1062F00011002000D1AF9F00E00F5400E08F5C0040
:10630000E00F5D00E08F5D00020032000001EB0055
